:020000040800F2
:10000000780600209D010008F32300087B1F0008EC
:10001000F12300088D0200082D2C000800000000CC
:10002000000000000000000000000000C9260008D9
:100030006F0400080000000015240008CB2600080B
:10004000B7010008B7010008B7010008B7010008B0
:10005000B7010008B7010008B7010008B7010008A0
:10006000B7010008B7010008B7010008B701000890
:10007000B7010008B70100081104000829040008AE
:10008000B7010008B7010008B7010008B701000870
:10009000B7010008B7010008B70100089F04000875
:1000A000B7010008B7010008B7010008B701000850
:1000B000B7010008B7010008B7010008B701000840
:1000C000B7010008B7010008B7010008B701000830
:1000D000B7010008212C0008B7010008B70100088B
:1000E00071040008B7010008B7010008B701000853
:1000F000B7010008B7010008B7010008B701000800
:10010000B7010008B7010008B7010008B7010008EF
:10011000B7010008B7010008B7010008B7010008DF
:10012000B7010008B7010008B7010008B7010008CF
:10013000B701000891020008A9020008B7010008F1
:10014000B7010008B7010008B7010008B7010008AF
:10015000B7010008B7010008B7010008B70100089F
:10016000B7010008B7010008B7010008B70100088F
:10017000B7010008B70100080000000000000000FF
:10018000B7010008B7010008DFF80CD000F06CF8E8
:1001900000480047952C0008780600200648804754
:1001A00006480047FEE7FEE7FEE7FEE7FEE7FEE75C
:1001B000FEE7FEE7FEE7FEE7812700088901000869
:1001C0002DE9F05F0546002092469B46884606468C
:1001D000814640241BE0284641464746224600F01F
:1001E00032F853465A46C01A914110D31146184668
:1001F000224600F019F82D1A67EB01084F462246F7
:100200000120002100F010F817EB00094E41201EDC
:10021000A4F10104DFDC484631462A46434600F09B
:1002200000B830BCBDE8C09F202A04DB203A00FAA9
:1002300002F1002070479140C2F1200320FA03F33D
:10024000194390407047202A04DB203A21FA02F03B
:100250000021704721FA02F3D040C2F12002914000
:100260000843194670470000064C074D06E0E06859
:1002700040F0010394E8070098471034AC42F6D3ED
:10028000FFF786FF802D0008A02D0008FEE7000084
:1002900010B5012002F0DCFCBDE81040014800F080
:1002A00059BC00003800002010B5002002F0D0FC3E
:1002B000BDE81040014800F04DBC00008C0000205B
:1002C00010B5806A0321016500F0C2FA10BD10B5B7
:1002D000806A00F0DDFB10BD10B5806A00F0D9FB2C
:1002E00010BD00001749884201D100207047154910
:1002F0002031884201D101207047124940318842A3
:1003000001D1022070470F496031884201D103209A
:1003100070470C498031884201D104207047094957
:10032000A031884201D1052070470649C03188427A
:1003300001D1062070470349E0318842D5D107201A
:100340007047000000600140426B0168002A0A68A3
:1003500011D022F001020A6001680A6842F400220A
:100360000A6001680A6842F001020A6090F84C10C5
:10037000032904D010E042F400320A600CE0816BE3
:1003800021B901680A6842F002020A6090F8401040
:1003900001290AD00121816490F84C10012906D06E
:1003A0005FF0040180F84C107047416CF3E70221C4
:1003B000F8E701680A6822F001020A60416B01292E
:1003C00004D101680A6822F400220A6001680A6800
:1003D00042F001020A6090F84C1004290CD1816BA4
:1003E00021B901680A6842F002020A6090F84010E0
:1003F000012909D00121816490F84C10022905D00F
:10040000032180F84C107047416CF4E70121F8E7B4
:1004100010B5012002F080FCBDE81040014800F05A
:1004200080BC0000C801002010B5002002F074FC60
:10043000BDE81040014800F074BC0000100200202C
:1004400030B590F8444004F01C050124AC40056C24
:100450006C60046863608368102B036803D0996044
:100460000068C26030BD9A600068C16030BD7047EE
:1004700010B54FF4806000F059FD4FF4006000F0BB
:1004800055FD4FF4005000F051FD4FF4804000F056
:100490004DFDBDE810404FF4004000F047BD10B5E1
:1004A000202000F043FD402000F040FD802000F0BF
:1004B0003DFDBDE810404FF4807000F037BD2DE9E0
:1004C000F0470446407900270E4601280BD04FF034
:1004D000010984F8059002202071306802F01005AF
:1004E000042803D043E00220BDE8F0874FF0030862
:1004F00002BB00F011FE074604E000F00DFEC01B39
:1005000001280FD82068406B0004F6D4012000F0C9
:10051000FDFC2168B069086416E000F0FDFDC01B19
:10052000012807D9206940F00800206184F8048080
:100530000320D9E72068406B0028EEDB012000F0A3
:10054000E5FC2168B06948642068816C40F2FF32A4
:10055000AA409143F269AA40114381642068C16CAA
:10056000FF22AA409143326AAA401143C164306914
:10057000012808D12268916B1F20A840814370692F
:10058000A840084390632268D16B0720A8408143AC
:10059000B36830681843F3681843A8400843D06331
:1005A000206801684FF48042AA40914301602268AC
:1005B000116840F6FC70A84081437068A840084369
:1005C000106020680168C022AA409143016084F84D
:1005D00004900020607187E770B5040003D0207993
:1005E000002510B105E0012070BD6571204600F0C6
:1005F00007F802202071256101202071002070BDC4
:1006000000B500680C4987B0884213D10B48816D52
:1006100041F000518165806D694600F00050059001
:100620003020009003200190002002904FF0904075
:1006300000F088FC07B000BD0074004000100240CC
:1006400018B5046800940068104421B1143000907B
:100650000360002018BD0830F9E770B54279012A1F
:1006600014D0012242710223037103681D6801F056
:10067000100602FA06F425431D60002901680B6884
:1006800006D0C3F38343012B0AD00DE0022070BDD6
:10069000C3F38303012B07D14B6843F0010302E04E
:1006A0004B6843F002034B60027100214171084620
:1006B00070BD704770B5040006D02068FFF712FEC9
:1006C000374D55F8200008B1012070BD204600F0DC
:1006D0006FF834480168491C0160006832490128FC
:1006E00019D13248026822F0804202600268A36891
:1006F0001A430260026822F47F0202602279012A12
:1007000005D10268A38901EB03431A430260026822
:1007100042F0004202602068026822F471420260E6
:100720002268106823691843D4E905363343184317
:1007300010602068026822F00F020260D4E90720EE
:100740000243206803681A4302602068826822F42A
:100750005F02826020688268636A1A43238D01EB1E
:1007600003410A4382602068416801F0070141604B
:10077000E06A216B000240EAC1012068426811432F
:1007800041602068016841F080010160012084F827
:1007900034002068FFF7A6FD45F82040002070BD1A
:1007A00058020020180000200000FFFF00600140F8
:1007B00000B5114887B0416800291BD10168491C68
:1007C0000160012908D10D48016E41F08071016678
:1007D000006E00F0807005904FF4207000900220B1
:1007E000019000200290039006200490694604487E
:1007F00000F0A8FB07B000BD100000200010024070
:10080000001000487047704770B590F84C400023C6
:10081000C4B1FF2C16D0046825680C4E3540256005
:1008200004686FF30F01012A256804D045EA01210D
:100830002160026307E04FF4802646EA01210D4360
:100840002560F6E70123184670BD0000FFFFFBF8A6
:1008500070470068C06900F0070220F0FF000A60DE
:10086000C11700EB116000127047000070B5040062
:1008700031D03C492068884205D1606801282AD0DF
:10088000E068012827D00125002065642063A56465
:100890002065204600F06EF82068016821F40021F0
:1008A0000160207A01282068016816D021F00051EB
:1008B0000160607A01282068016811D021F40011DC
:1008C00001602068016846F2087291430160E068A7
:1008D000022808D00CE0012070BD41F00051E7E78C
:1008E00041F40011ECE7206801686269114301607E
:1008F000207C0128206801682ED021F010010160C1
:10090000607C01282068016829D021F02001016065
:1009100020684169144A1140416120684169E269D7
:10092000124B1143228C03EB0242636A5B1E1A4393
:100930001143416160686063E068A063A069E0639F
:10094000207C84F840002068016841F001010160CA
:1009500084F84C50002070BD41F01001CFE741F009
:100960002001D4E70061014000FF001C0000FFFFF0
:10097000704700002DE9F0413749054686B04868C8
:10098000002650BB0868401C0860012808D1334885
:10099000016E41F080710166006E00F0807005907C
:1009A0004FF4207000900220CDE901060620CDE929
:1009B000036069462A4800F0C5FA002211463D202E
:1009C00000F02CFC3D2000F01DFC002211463E20D2
:1009D00000F024FC3E2000F015FC224928684F1549
:1009E0004FF40068884216D1204C1F48C4E9000625
:1009F000A66004F11000E66080E8C001E6612046D0
:100A0000266200F0EBF918B1BE2119A002F00FF92F
:100A1000EC62AC62A562134928688031884217D124
:100A200011481A4C1430C4E90006A66004F1100005
:100A3000E66080E8C001E6612046266200F0CEF95B
:100A400018B1D4210AA002F0F2F8EC62AC62A562FF
:100A500006B0BDE8F0810000100000200010024048
:100A6000001000480061014044000240C80100201D
:100A70002E2E2F5372632F73746D33326C3478784B
:100A80005F68616C5F6D73702E6300001002002060
:100A90007047704710B590F84C100024012904D01D
:100AA000032902D00124204610BDFFF74DFCFAE7D0
:100AB00070B50E0004464FF000052ED06AB32068D2
:100AC0000068800229D5606B30B9206B20B9A06A1C
:100AD000C06940B1202820D094F84C00012805D0EE
:100AE000032803D019E0012A17D1F5E7A16A0F48BE
:100AF000C862A16A0E484863A06AC16920290FD064
:100B0000002101632168134632461C31A06A00F0BF
:100B1000C5F938B1FF2084F84C000125284670BD86
:100B20000449EEE72046FFF70FFCF7E7CF02000885
:100B3000C1020008D902000810B590F84C1000243A
:100B4000022903D0042901D0012401E0FFF731FC80
:100B5000204610BD2DE9F0410446006881684268D6
:100B60000D074FF0010305D5150703D50821C16016
:100B7000236507E04D070AD5550708D50421C16054
:100B8000022020652046FFF763FEBDE8F0818D0757
:100B900019D5950717D52046FFF77AFF206B002857
:100BA000F3D1606B0028F0D12068416821F0020188
:100BB000416094F84C00022803D0032084F84C00D4
:100BC000E3E70120FAE701EA0205ED071FD020461E
:100BD000FFF7CEFEA06C401EA064D6D1A06B58B922
:100BE0002068416821F00101416094F84C0003281D
:100BF00009D0022084F84C0094F84000012804D069
:100C00000120A064C1E70120F4E7606CF9E7CD069C
:100C10001CD5D5061AD5856A002115F0FF0F01D025
:100C2000012204E000222D0A01E06D08491CEE07B4
:100C300001D10729F9D32AB18B40C3622046FFF7BF
:100C4000E2FDA2E701F10805AB40F6E71F4D204E9B
:100C5000A84221D111F47F0F1ED057061CD5806801
:100C60000025C0F307479846F80710D056F825002E
:100C700068B100680068400609D505F1100108FA5E
:100C800001F02168C86056F82500FFF712FD7F08C3
:100C90006D1C082DE8D378E7A84291D1090E8FD0BA
:100CA00091068DD582680021120ED40705D1520815
:100CB000491CD40701D10729F9D301F11802934047
:100CC000C36056F82100FFF79DFD5EE7006101401B
:100CD0005802002010B590F825100024022903D0F6
:100CE0000421C16301241AE001680A6822F00E029F
:100CF0000A6001680A6822F001020A6090F8441054
:100D0000036C01F01C02012101FA02F25A6080F822
:100D10002510002180F82410816B01B188472046FE
:100D200010BDF0B4016C0C6801680D6890F84420A7
:100D300002F01C06042202FA06F3234211D06B07CC
:100D40000FD50B689B0603D40B6823F004030B60DC
:100D500090F8441001F01C018A40016C4A60016B5C
:100D60001DE0022303FA06F727424FF0000C4FF074
:100D7000010218D0AF0716D50C68A40605D40C687C
:100D800024F00A040C6080F8252090F8441001F04B
:100D90001C018B40016C4B6080F824C0C16A0029A3
:100DA0001AD0F0BC08470823B340234214D02B07C5
:100DB00012D50B6823F00E030B6090F84410036CFF
:100DC00001F01C0102FA01F15960C26380F825208C
:100DD00080F824C0416BE2E7F0BC704770B568B1A1
:100DE0002B4C036814212B4AA34209D22A4C1C44E1
:100DF000B4FBF1F18900C0E910210BE0012070BDC6
:100E0000234C64421C44B4FBF1F189004164204945
:100E100008390164022180F825101C6847F6F0713A
:100E20008C43D0E902152943D0E9045635432943C0
:100E300085692943C5692943056A29432143196006
:100E40008168B1F5804F19D0036C0F21934202D114
:100E500052F8A83F02E00E4AA032136890F84440CE
:100E600004F01C04A1408B43136090F844304168A7
:100E700003F01C0399401368194311600021C163FA
:100E8000012280F8252080F82410084670BD00005B
:100E90000804024000000240F8FFFDBF70B50446A0
:100EA00090F82400002501280CD0012084F82400AB
:100EB00094F825600020012E06D084F82400022535
:100EC000284670BD022070BD022684F82560E063CC
:100ED0002068066826F0010606602046FFF7B0FA93
:100EE000206B00282068016802D041F00E0106E066
:100EF00021F0040101602068016841F00A010160ED
:100F00002068016841F001010160D9E770B504462D
:100F100000F002F90546601C00D0641C00F0FCF8EB
:100F2000401BA042FAD370BD70470000044910B5C1
:100F30000A68024202D00860FFF7F6FF10BD000009
:100F4000140401402DE9F84FDFF898B100234FF069
:100F5000010C4FF0030A4FF00F090BF1040EB9E03A
:100F60000CFA03F4224070D04D68022D01D0122DEE
:100F70000ED1DD0800EB8508D8F820505E07F70E8B
:100F800009FA07F6B5430E69BE402E43C8F8206043
:100F900007685E0091F804800AFA06F508F0030875
:100FA000AF4308FA06F848EA0708C0F800804F681F
:100FB000012F05D0022F03D0112F01D0122F13D1F2
:100FC000D0F80880CF6828EA0508B74047EA080744
:100FD0008760D0F804800F7928EA0408C7F3001767
:100FE0009F4047EA08074760D1F804806FEA080786
:100FF000BF0706D1C76AA743C8F3C0049C403C435F
:10100000C462C468AC438D68B5402543C5604C6874
:10101000E4005ED5344C256E45F001052566246E4E
:1010200023F0030504F001040094304C2E19B46839
:101030009D072F0F09FA07F5AC43B0F1904F05D08B
:101040002B4DA84204D101251CE042E0002519E007
:10105000284DA84201D1022514E0274DA84201D114
:1010600003250FE0254DA84201D104250AE0244DB7
:10107000A84201D1052505E0224DA84201D106254F
:1010800000E00725BD402543B560DBF800405D4624
:101090004E689443F60300D514432C60DEF80040FC
:1010A00075464E689443B60300D514432C600D4D2D
:1010B00008352C684E689443F60200D514432C6022
:1010C000084D0C352C684E689443B60200D5144385
:1010D0002C605B1C0A6832FA03F57FF441AF00F024
:1010E00013B800000004014000100240000001405D
:1010F0000004004800080048000C004800100048A8
:10110000001400480018004818BCBDE8E08F0AB180
:101110008161704781627047014800687047000034
:101120001C00002002480168491C01607047000053
:101130001C00002010B50024032000F08FF80020D0
:1011400000F008F808B1012401E000F01BF8204687
:1011500010BD000070B5054609484FF47A710024AF
:101160000068B0FBF1F000F0E6FD08B1012404E0F6
:1011700000222946501E00F051F8204670BD0000A4
:10118000200000201E4808B5016E41F001010166F3
:10119000016E01F001010091816D41F08051816586
:1011A000806D00F080500090032000F057F800227E
:1011B00011466FF00B0000F031F8002211466FF07D
:1011C0000A0000F02BF8002211466FF0090000F031
:1011D00025F800221146501F00F020F80022114689
:1011E000101F00F01BF800221146901E00F016F8A8
:1011F0000022BDE808401146501E00F00FB8000064
:101200000010024000F01F020121914040098000BF
:1012100000F1E020C0F8001170470000F0B40E4B60
:101220001B680C46C3F30223C3F10705042D00D944
:101230000425191D072901D2002300E0DB1E012629
:1012400006FA05F1491E214099409E40761E16403F
:101250003143F0BC01F0CEB80CED00E0064900F0DF
:10126000070208684FF6FF03184040EA0220034ACD
:1012700010430860704700000CED00E00000FA0524
:101280001649B0F5007F0868C0F3412009D0022854
:1012900005D0086820F4C06040F480600860002039
:1012A00070470128FBD0086820F4C06040F400704B
:1012B00008600B483222006850430A4AB0FBF2F043
:1012C000401C00E0401E4A69520501D50028F9D1B2
:1012D00048694005E3D503207047000000700040D6
:1012E0002000002040420F000248006800F4C06067
:1012F00070470000007000402DE9F84F04460027B9
:101300000088E54D3E46010504F1200B1DD5606EB9
:1013100078B1B0F5800F11D0B0F5000F04D0B0F562
:10132000400F22D001270FE0E86840F48030E860E9
:101330001BE00021201D01F06FF803E0002158465A
:1013400001F000F9070010D03E462088C00426D5E1
:10135000A06EC0B1B0F1807F1AD0B0F1007F0DD087
:10136000B0F1407F19D0012718E0D5F88800616EF0
:1013700020F440000843C5F88800E6E7E86840F438
:101380008030E86009E00021201D01F045F803E00D
:101390000021584601F0D6F80746F7B13E462068CE
:1013A00080033AD5A86D4FF00008C00009D4A86D9D
:1013B00040F08050A865A86D4FF0010800F0805003
:1013C0000090DFF8D8A2DAF8001041F48071CAF872
:1013D0000010FFF7A1FE814610E0D5F88800A16E4D
:1013E00020F040700843C5F88800D8E7FFF794FE66
:1013F000A0EB0900022801D9032705E0DAF8000074
:10140000C005F3D5002F7CD04FEA0706B8F1000FD6
:1014100003D0A86D20F08050A8652078C00707D0C1
:10142000D5F88800A16B20F003000843C5F88800B8
:101430002078800707D5D5F88800E16B20F00C00F4
:101440000843C5F888002078400707D5D5F88800FC
:10145000216C20F030000843C5F888002078000790
:1014600007D5D5F88800616C20F0C0000843C5F8A6
:1014700088002078C00607D5D5F88800A16C20F434
:1014800040700843C5F888002078800607D5D5F855
:101490008800E16C20F440600843C5F8880020888B
:1014A000800507D5D5F88800E16D20F44020084379
:1014B000C5F888002088400507D5D5F88800216E3A
:1014C00020F440100843C5F888002078400607D56E
:1014D000D5F88800216D20F440500843C5F88800F5
:1014E0002078000607D5D5F88800616D20F44040CB
:1014F0000843C5F888002088C00509D5D5F88800BC
:1015000000E01CE0A16D20F440300843C5F88800DD
:1015100020884FF0006780044FF080684FD5D5F8E1
:101520008800E16E20F040600843C5F88800E06E56
:10153000B8423CD1E86840F48010E8603FE0D5F85C
:10154000900010F4407015D0D4F88410814211D06E
:10155000D5F89000D5F8901020F4407041F4803117
:10156000C5F89010D5F8901021F48031C5F890108E
:10157000C5F89000C00710D0FFF7CEFD074641F236
:10158000883906E0FFF7C8FDC11B494501D903268C
:101590003CE7D5F890008007F4D5D5F89000D4F852
:1015A000841020F440700843C5F890002EE74045B1
:1015B00005D10121201D00F02FFF00B10646206853
:1015C000000317D5D5F88800216F20F0406008434C
:1015D000C5F88800206FB84204D1E86840F4801054
:1015E000E86007E0404505D10121201D00F014FF0F
:1015F00000B106462068400317D5D5F88800616F12
:1016000020F040600843C5F88800606FB84204D1FC
:10161000E86840F48010E86007E0404505D101210A
:10162000201D00F0F9FE00B10646208840041AD5BE
:10163000D5F88800A16F20F040500843C5F8880015
:10164000A06FB0F1805F03D0B0F1005F05D00AE079
:101650000221201D00F0E0FE03E00221584600F0C8
:1016600071FF00B106462088000407D5D5F8880030
:10167000E16F20F080400843C5F888002068C0036F
:1016800007D555F8880FD4F8801020F000400843A3
:101690002860304600F004B800100240007000409E
:1016A00018BCBDE8E08F00002DE9F0470F460500AB
:1016B00058D03F4E306800F00700B84209D2306879
:1016C00020F0070038433060306800F00700B8426F
:1016D00048D12878374CC0072CD06868032811D02F
:1016E000022812D0216898B1490500293ADAA16888
:1016F00021F003010143A160FFF70EFD804641F296
:10170000883910E021688901EFE721688903ECE757
:101710008907EAE7FFF700FDA0EB0801494502D978
:101720000320BDE8F087A068696800F00C00B0EB0A
:10173000810FEFD12878800705D5A068A96820F02F
:10174000F0000843A060306800F00700B8420BD9F1
:10175000306820F0070038433060306800F0070040
:10176000B84201D00120DCE72878400705D5A06801
:10177000E96820F4E0600843A0602878000706D5F7
:10178000A068296920F4605040EAC100A06000F020
:1017900041F8A168084AC1F30311515C01F01F012F
:1017A000C84006490860BDE8F0470020FFF7D2BCFA
:1017B0000020024000100240382D000820000020C8
:1017C00001480068704700002000002005480649D5
:1017D00000688968054AC1F30221515C01F01F01CC
:1017E000C84070472000002000100240782D0008FB
:1017F0000548064900688968054AC1F3C221515C61
:1018000001F01F01C8407047200000200010024076
:10181000782D000870B52549002318468A68CC68E1
:1018200012F00C0204F00306214C4FEA640509D0C3
:101830000C2A05D0042A26D0082A00D1284670BDDB
:10184000012E10D10B681B0704D4D1F89430C3F3D8
:10185000032302E00B68C3F30313164E56F823303C
:101860007AB10C2AEBD1C86800F00302C868C0F353
:101870000210401C022A08D0032A09D0B3FBF0F062
:1018800008E0184670BD204670BDB4FBF0F001E0E2
:10189000B5FBF0F0CA68C968C2F306225043C1F331
:1018A0004161491C4900B0FBF1F070BD00100240DD
:1018B0000024F400482D00082DE9F84305007CD0F1
:1018C000FD4CA06800F00C06E06800F003072878E3
:1018D000C00661D576B10C2E01D1012F0AD0A869BE
:1018E0000028206878D040F001002060FFF714FC49
:1018F000804659E02068800702D5A8690028DED01C
:10190000286A2168090703D5216801F0F00104E085
:10191000D4F89410F02202EA1111884215D900F08F
:1019200095FE002849D1206840F00800206020681A
:10193000296A20F0F000084320606068E96920F41B
:101940007F4040EA0120606015E0206840F0080018
:1019500020602068296A20F0F00008432060606859
:10196000E96920F47F4040EA01206060286A00F0C5
:101970006DFE0028D6D1FFF74DFFA168CF4AC1F315
:101980000311515C01F01F01C840CD4908600020DF
:10199000FFF7E0FB00287DD12FE000BFFFF7BCFB85
:1019A000A0EB0800022876D820688007F6D52068CA
:1019B00040F008002060206801E0BBE00CE0296AEC
:1019C00020F0F000084320606068E96920F47F405F
:1019D00040EA0120606010E020F001002060FFF785
:1019E0009BFB804606E000BFFFF796FBA0EB0800DC
:1019F0000228D8D820688007F6D42878C00740D0BD
:101A0000082E18D00C2E01D1032F14D06868B0F521
:101A1000803F17D0B0F5A02F206817D020F4803079
:101A20002060206820F4802020606868E0B1FFF723
:101A300073FB804614E02068800322D56868002884
:101A400078D01EE0206840F48030EDE740F480203C
:101A50002060F7E7FFF760FBA0EB08006428A2D83E
:101A600020688003F6D50CE0FFF756FB804605E0C2
:101A7000FFF752FBA0EB0800642894D8206880038D
:101A8000F6D4287880073BD5042E11D00C2E04D133
:101A9000022F01E036E1A1E00AD0E86800282068C2
:101AA0001ED040F480702060FFF736FB07460CE044
:101AB000206840050CD5E8680028C1D008E000BFC8
:101AC000FFF72AFBC01B022893D820684005F7D5F2
:101AD0006068297C20F0F85040EA016060600FE007
:101AE00020F480702060FFF717FB074605E000BF79
:101AF000FFF712FBC01B022870D820684005F7D4FE
:101B00002878000729D568690028D4F8940012D0F5
:101B100040F00100C4F89400FFF7FEFA074604E025
:101B2000FFF7FAFAC01B022858D8D4F894008007AF
:101B3000F6D512E0EDE020F00100C4F89400FFF7C4
:101B4000EBFA074605E000BFFFF7E6FAC01B0228E4
:101B500044D8D4F894008007F6D42878400768D594
:101B6000A06D0027C00008D4A06D40F08050A06593
:101B7000A06D012700F08050009052480168C9050F
:101B800012D40168814641F480710160FFF7C4FA04
:101B9000804605E0FFF7C0FAA0EB080002281DD838
:101BA000D9F80000C005F5D5A868012817D0052888
:101BB000D4F8900018D020F00100C4F89000D4F8B8
:101BC000900020F0040000BFC4F89000A86841F223
:101BD0008839D0B1FFF7A0FA804611E06BE0D4F865
:101BE000900040F00100EFE740F00400C4F89000DE
:101BF000F5E700BFFFF790FAA0EB080149455AD876
:101C0000D4F890008007F5D50EE0FFF785FA8046FE
:101C100006E000BFFFF780FAA0EB0801494570D845
:101C2000D4F890008007F5D41FB1A06D20F080504B
:101C3000A065A86AF0B30C2E6BD00228206820F0B3
:101C40008070206004D0206810F0205F47D04AE008
:101C5000FFF762FA064604E0FFF75EFA801B0228EF
:101C60004FD820688001F7D4286BE96A000110384A
:101C70000843696BAA6B0902120941EA4241084311
:101C8000A98F114A490802EB4151084395F84010C9
:101C90004908120102EB41610843E060206840F00E
:101CA00080702060E06840F08070E060FFF734FAF8
:101CB000054610E02BE024E000100240382D00081B
:101CC00020000020007000400000E0FFFFF724FA31
:101CD000401B022815D820688001F7D517E0E0687E
:101CE00020F00300E060E0680B490840E060FFF787
:101CF00013FA054608E000BFFFF70EFA401B022862
:101D000002D90320BDE8F88320688001F4D40020C4
:101D1000F8E70120F6E70000FFFFEEFE4FF0E021BC
:101D20000428086903D020F004000861704740F0DF
:101D30000400FAE7704710B5401EB0F1807F01D370
:101D4000012010BD4FF0E02460610F21601700F00A
:101D500051FB0020A06107202061002010BD10B5BC
:101D6000FFF7E8FF10BD7047704700002DE9F04114
:101D700002680446D0691168936810F00F0F4FF0A5
:101D800000055BD003F0010601F49077374369D07A
:101D9000C70707D0CF0505D501271762626F42F04C
:101DA00001026267820708D5DA0706D02768022297
:101DB0003A62626F42F004026267420708D5DA07AE
:101DC00006D0236804221A62626F42F00202626740
:101DD00002070AD501F02002324306D02368082208
:101DE0001A62626F42F008026267626F002A32D0A4
:101DF000800605D5880603D5216E09B1204688479F
:101E0000606F000703D420688068400625D520460F
:101E100000F074FD20688168490619D5816821F0B9
:101E200040018160E06E98B120498163E06EFEF769
:101E300051FF00280FD0E06E816B06E0860611D5B9
:101E40008E060FD5216E1EE02046BDE8F041084702
:101E50002046FFF789FFBDE8F0812046FFF784FFA9
:101E60006567F8E7C60209D55B0207D54FF4801015
:101E700010622046BDE8F041FFF775BF030605D5A7
:101E80000B0603D5616E0029DED1E4E74006E2D5FA
:101E90004806E0D51168204621F04001116020215C
:101EA00084F87110656600F067F8D4E7E928000847
:101EB00010B5040003D094F8710010B107E00120C0
:101EC00010BD002084F87000204600F027F8242080
:101ED00084F871002068016821F00101016020464A
:101EE00000F01CFD0128EBD0606A10B1204600F024
:101EF00069FC2068416821F4904141602068816854
:101F000021F02A0181602068016841F0010101602F
:101F10002046BDE8104000F0B9BC000000B50068E4
:101F2000124987B088421ED11148016E41F48041A8
:101F30000166006E694600F480400590C020009064
:101F400002200190002002900320039007200490BB
:101F50000848FEF7F7FF002211462520FFF75EF93B
:101F60002520FFF74FF907B000BD00000038014001
:101F700000100240000400487047FEE710B5114908
:101F80008AB00F4808600846FEF726FB00B1FEE75E
:101F9000002400940194029403942246694609485F
:101FA0000494FEF78CFA00B1FEE71022694605485A
:101FB0000394FEF784FA002800D0FEE70AB010BDB3
:101FC00000740040240000202DE9F04734483349D4
:101FD0000025C0E90015012404724472CE05C8270B
:101FE000C661C0E90874FEF741FC00B1FEE72C4869
:101FF0002A4954308031C0E9001504724472C66128
:10200000C0E90874FEF732FC00B1FEE7234924481A
:10201000E039A8304E06016004714FF0190986605E
:10202000C0E903958915C0E905514FF0040AC0E9DC
:10203000075A00F128011B4F4FF00C08456281E858
:102040009001FEF737FB00B1FEE715481349E03079
:10205000C039016004718660C0E903954561C0E93B
:10206000065400F1280181E89001C0E908A5FEF7B7
:1020700021FB00B1FEE701220B490948FEF7C4FB32
:1020800000B1FEE70648012208495430FEF7BCFBC8
:10209000002800D0FEE7BDE8F087000000610140A5
:1020A00038000020010080FF02000100040002004F
:1020B0002DE9F04FB74887B0C16C41F01001C16401
:1020C000C16C01F010010591C16C41F00401C164C3
:1020D000C16C01F004010591C16C41F00101C164C2
:1020E000C16C01F001010591C16C41F00201C164B4
:1020F000C16C01F002010591C16C41F00801C1649D
:10210000C06C002200F00800059040F21511A248B2
:10211000FEF7FDFF002248F204114FF09040FEF759
:10212000F6FF00224FF234019C48FEF7F0FF002238
:1021300043F281019A48FEF7EAFF00224FF4107142
:102140009848FEF7E4FF40F21510009001200024AB
:10215000CDE90104694690480394FEF7F3FE924DE1
:102160006A20CDE90005694602948B48FEF7EAFE35
:102170004FF4005000908D48CDE90104694689482C
:10218000FEF7E0FE3B200B26CDE9000669460294EF
:102190008448FEF7D7FE032000900220CDE9010419
:1021A00003200827CDE9030769464FF09040FEF76A
:1021B000C9FE48F2041000900120CDE901046946EF
:1021C0004FF090400394FEF7BDFE02200097CDE94A
:1021D00001040120CDE9034069464FF09040FEF72D
:1021E000B1FEC02000900220CDE9010403204FF091
:1021F000050BCDE9030B69464FF09040FEF7A2FEB8
:102200000120CDE90005694602946448FEF79AFE74
:102210000220CDE90006694602946048FEF792FE6E
:102220004FF2340000900120CDE9010469465B487B
:102230000394FEF787FE4FF47C4000900220CDE926
:10224000010403200A26CDE9030669465248FEF739
:1022500079FE4FF440604FF01208CDE900080120EC
:10226000029003204FF00409CDE9030969464B4869
:10227000FEF768FE4FF4407A0220CDF800A0CDE9C9
:10228000010403200727CDE9030769464448FEF708
:1022900059FE4CF60440CDE90005694602944048D9
:1022A000FEF750FE43F2810000900120CDE90104C9
:1022B00069463B480394FEF745FE4FF410700090CA
:1022C0000120CDE90104694636480394FEF73AFE41
:1022D0004FF4C070CDE90005694602943148FEF71D
:1022E00031FE4FF40070CDE9000469464FF0904094
:1022F0000294FEF727FEBD0202200095CDE90104FD
:102300000320CDE9030669464FF09040FEF71AFE20
:1023100002200095CDE901040320039006200490DB
:1023200069462048FEF70EFE02200090CDE9010428
:102330000320CDE9030B69461948FEF703FE382058
:1023400000900220CDE901040320CDE9030769468E
:102350001348FEF7F7FD0120CDF800A0CDE901807C
:102360000320CDE9030969460C48FEF7EBFD002286
:1023700011461720FEF752FF1720FEF743FF0022F9
:1023800011462820FEF74AFF2820FEF73BFF07B042
:1023900000F00EB800100240001000480004004891
:1023A000000C004800080048000011100000211037
:1023B00030BCBDE8C08F00000C4810B50A49016070
:1023C0004FF4E1314160002181600C22C160C0E91D
:1023D00004128161C16101624162FFF769FD002859
:1023E00000D0FEE710BD0000003801405001002081
:1023F000FEE770470907090E002806DA00F00F0013
:1024000000F1E02080F8141D704700F1E02080F812
:1024100000147047704700002DE9F041444C054618
:102420008846E0680026810728680DD0E16801F041
:102430000301814216D1A8B1E0686968C0F30210B7
:10244000401C88420ED120E0012804D0022805D08B
:10245000032807D108E02168890701E021684905C0
:10246000002907DB01265FE02168890302D4216887
:102470004903F5E7E1686A686FF00F0321F0730123
:1024800003EB021211430143E160206820F08060F9
:102490002060FEF741FE074605E000BFFEF73CFE68
:1024A000C01B022837D820680001F7D4B8F1000F0C
:1024B00018D0B8F1010F1ED0287D4FF07E414008A2
:1024C00001EB4060A96840EA01202169194A1140E6
:1024D00008432061206840F080602060FEF71CFE09
:1024E00007461AE0A868E9680002090940EA414085
:1024F0002169114AEBE7288A1049400801EB405056
:10250000A96840EA012021690D4AE0E7FEF704FED0
:10251000C01B022801D9032606E020680001F5D57A
:102520002069A969084320613046BDE8F0810000B8
:1025300000100240FF80FFF9FF80FDFF0000E0FF78
:10254000FF809FFF2DE9F0413D4C06468846E0683C
:102550000025810730680DD0E16801F00301814258
:1025600016D1A8B1E0687168C0F30210401C88421F
:102570000ED120E0012804D0022805D0032807D17D
:1025800008E02168890701E021684905002907DB87
:10259000012551E02168890302D421684903F5E748
:1025A000E16872686FF00F0321F0730103EB021210
:1025B00011430143E160206820F080502060FEF765
:1025C000ABFD074605E000BFFEF7A6FDC01B0228D5
:1025D00029D820688000F7D4B8F1000F15D0307CDE
:1025E0004FF07E41400801EB4060B16840EA0120B5
:1025F0006169144A114008436061206840F08050CE
:102600002060FEF789FD07460FE0B068F168000220
:10261000090940EA414061690B4AEBE7FEF77CFD9E
:10262000C01B022801D9032506E020688000F5D5EB
:1026300060697169084360612846BDE8F081000067
:1026400000100240FF80FFF9FF80FDFFF8B51C4D30
:1026500006460024A86DC00002D5FEF745FE0DE039
:10266000A86D40F08050A865A86D00F080500090E3
:10267000FEF73AFEA96D21F08051A965B0F5007F03
:1026800004D0802E07D94FF003040AE0802E08D929
:10269000A02E01D804E001D1022402E0702E00D166
:1026A00001240848016821F0070121430160006806
:1026B00000F00700A04201D00120F8BD0020F8BDC5
:1026C0000010024000200240704710B5FEF72AFDBE
:1026D000BDE81040FFF743BBF0B5B9B010200125AD
:1026E00000242290CDE9285402266020CDE92C65F3
:1026F0002A9028200727CDE92E50CDE93076329652
:1027000022A8FFF7D9F800B1FEE70F20339003208D
:10271000CDE934043694042133A83794FEF7C4FF7E
:1027200000B1FEE715481994CDE900052094182062
:10273000CDE902504FF480300E94CDE90660CDE92A
:1027400004766846FEF7D8FD00B1FEE74FF400704E
:10275000FEF796FD00B1FEE7FFF732F84FF47A710D
:10276000B0FBF1F0FFF7E7FA0420FFF7D7FA0022F9
:102770001146501EFEF752FD39B0F0BD01080100B0
:102780000D48016841F4700101600C48016841F096
:1027900001010160002181600268094B1A4002605A
:1027A0008214C260026822F48022026081610249C0
:1027B000C00380390860704788ED00E000100240D7
:1027C000FFFFF6EA90F82410C90706D001684A68AE
:1027D000836A22F400321A434A6090F82410890771
:1027E00006D501684A68C36A22F480321A434A60F7
:1027F00090F82410490706D501684A68036B22F453
:1028000080221A434A6090F82410090706D501680F
:102810004A68436B22F400421A434A6090F824103D
:10282000C90606D501688A68836B22F480521A4370
:102830008A6090F82410890606D501688A68C36BFF
:1028400022F400521A438A6090F82410490611D5E8
:1028500001684A68036C22F480121A434A60016CD2
:10286000B1F5801F06D101684A68436C22F4C002AA
:102870001A434A6090F82410090606D501684A6890
:10288000806C22F4002202434A607047F8B50026AB
:1028900004464667FEF740FC0546206800686FF076
:1028A0007E47000708D52B4600224FF40011204632
:1028B000009700F083F960B92068006840070AD5E6
:1028C0002B4600224FF480012046009700F076F955
:1028D00008B10320F8BD202084F8710084F872004C
:1028E00084F870600020F8BD10B5806A0021A0F85F
:1028F0005A10A0F85210FFF737FA10BD01680A68A5
:1029000022F490720A6001688A6822F001028A60EB
:10291000202180F872100021016670472DE9F041F6
:102920000446016880682369E669184363691025D5
:10293000002733431843954A0B68954E33400343B1
:102940000B6020684168E36821F4405119434160FD
:102950002168A069914201D0236A18438B6823F44F
:10296000306303438B608B4B21688B4899420DD1B8
:10297000D0F8880010F0030006D001285AD00228B1
:1029800056D0032859D157E0012556E0834B994290
:102990000BD1D0F8880010F00C0047D0042849D0A3
:1029A000082845D00C2848D146E07D4B99420BD1F0
:1029B000D0F8880010F0300038D010283AD0202805
:1029C00036D0302839D137E0764B99420BD1D0F848
:1029D000880010F0C00029D040282BD0802827D0B4
:1029E000C0282AD128E0704B99420ED1D0F8880037
:1029F00010F440701AD0B0F5807F1BD0B0F5007F86
:102A000016D0B0F5407F18D116E0914215D1D0F81C
:102A1000880010F4406009D0B0F5806F0AD0B0F59E
:102A2000006F05D0B0F5406F07D105E0002504E048
:102A3000022502E0042500E008255C4B00264FF447
:102A4000004091423DD135B1022D07D0042D07D071
:102A5000082D10D107E0FEF7B9FE03E0184602E0AA
:102A6000FEF7D8FEA8B3626802EB4201814202D8A9
:102A7000B0EB023F01D9012775E0DFF834815DB189
:102A8000022D0CD0042D13D0082DF4D150082905A7
:102A9000401846F1000105E0FEF798FE0AE05008F4
:102AA0004449F5E70023FDF78BFBA0F5407156E0A4
:102AB000FEF7B0FE6268010E03025008181871415B
:102AC000F0E7E1694FF6EF7881422FD1092DD2D29C
:102AD00000E048E0DFE805F00609200523050505CC
:102AE0002600C8E7FEF772FE01E0FEF781FE410016
:102AF000D4F8040001EB5001B1FBF0F080B2A0F17A
:102B000010014145B7D84FF6F0710140C0F34200C3
:102B100001432068C16026E027496068EAE7FEF7C4
:102B200079FEE4E74FF480316068E3E7092DA2D233
:102B3000DFE805F006091E052205050525009AE7D0
:102B4000FEF744FE01E0FEF753FE0146606801EB2C
:102B5000500100BFB1FBF0F080B2A0F1100141457F
:102B600089D82168C860266638466666BDE8F08167
:102B7000606803EB5001EDE7FEF74CFEE5E76168A6
:102B800000EB5100B0FBF1F0E6E7000000800040F0
:102B9000F369FFEF0038014000100240004400409C
:102BA00000480040004C0040005000400024F40069
:102BB000FFFC0F00000024F40048E8012DE9F0417B
:102BC000984617460E460446069D1DE0681C1BD01D
:102BD0002DB1FEF7A1FAA0EB0800A84214D9206895
:102BE000016821F4D07101602068816821F0010141
:102BF0008160202084F8710084F87200002084F83D
:102C000070000320BDE8F0812068C06936EA00004A
:102C100004D00020B842D9D00020F3E70120F9E722
:102C20000148FFF7A3B8000050010020FEE7FEE7CF
:102C300002E008C8121F08C1002AFAD17047704785
:102C4000002001E001C1121F002AFBD170470000E3
:102C500010B50E4C48B10E48FDF71CFF21460C483C
:102C6000FDF7F7FDA0600A480CE009485430FDF775
:102C700011FF06490648091D5430FDF7EAFDE060E2
:102C800003485430BDE81040FDF756BF0000002057
:102C90003800002008B5FEF74DFAFFF71DFDFFF7DD
:102CA00007FA1A48816C41F001018164806C0022AE
:102CB00000F00100009011460E20FEF7AFFA0E2042
:102CC000FEF7A0FA002211460F20FEF7A7FA0F2008
:102CD000FEF798FAFFF752F9FFF76EFBFFF774F96A
:102CE00000210B48FDF7B9FC10210948FDF7B5FCA0
:102CF0000748012207491430FDF7DAFE0549044868
:102D00000122091D6830FDF7D3FEFEE700100240E6
:102D10002400002008000020054918B100228B681B
:102D2000114602E00022CB6810210248FDF788BC62
:102D3000000000202400002000000000000000002F
:102D40000102030406070809A0860100400D0300E4
:102D5000801A060000350C0040420F0080841E00DF
:102D600000093D0000127A000024F40000366E01D4
:102D70000048E801006CDC020000000001020304CE
:102D8000A02D00080000002024000000302C0008C6
:102D9000C42D00082400002054060000402C000828
:102DA0000100000002000000000000000000000020
:102DB0000000000000000000000000000000000013
:042DC00000093D00C9
:040000050800018965
:00000001FF
