:020000040800F2
:10000000181F002079020008D3270008AD1F000840
:10001000D1270008510A0008C93300080000000079
:100020000000000000000000000000009D0100082A
:10003000350B000800000000F1010008812D0008C8
:10004000930200089302000893020008930200083C
:10005000930200089302000893020008930200082C
:10006000930200089302000893020008930200081C
:10007000930200089302000893020008930200080C
:1000800093020008930200089302000893020008FC
:1000900093020008930200089302000893020008EC
:1000A00093020008930200084D2E000893020008F6
:1000B00093020008930200089302000893020008CC
:1000C00093020008930200089302000893020008BC
:1000D00093020008930200089302000893020008AC
:1000E000930200089302000893020008930200089C
:1000F000930200089302000893020008930200088C
:10010000930200089302000893020008930200087B
:10011000930200089302000893020008930200086B
:10012000930200089302000893020008930200085B
:10013000930200089302000893020008930200084B
:10014000930200089302000893020008930200083B
:10015000930200089302000893020008930200082B
:10016000930200089302000893020008930200081B
:100170009302000893020008000000000000000045
:100180009302000893020008DFF80CD000F0D8FAC0
:10019000004800473D3D0008181F00202B4B196800
:1001A000086800F058B880F30988BFF36F8F4FF0EC
:1001B000000080F3118870470000000006480068C6
:1001C000006880F3088862B661B6BFF34F8FBFF353
:1001D0006F8F00DF00BF00BF08ED00E0DFF80C000C
:1001E000016841F470010160704700BF88ED00E0D4
:1001F000EFF30980BFF36F8F144B1A681EF0100FD6
:1002000008BF20ED108A20E9F04F106008B44FF0CD
:10021000500080F31188BFF34F8FBFF36F8F04F04E
:1002200081FA4FF0000080F3118808BC1968086853
:1002300000F016B81EF0100F08BF00F016B880F3DB
:100240000988BFF36F8F704700BF00BF4C010020CB
:10025000EFF30580704730C8B0E8C04FFFF7A3BF89
:1002600030C8B0E8C04FFFF7E5BFB0EC088AB0EC8B
:1002700008CAFFF7E4BF0000064880470648004769
:10028000FEE7FEE7FEE7FEE7FEE7FEE7FEE7FEE746
:10029000FEE7FEE7092E0008890100082DE9F05F5E
:1002A0000546002092469B468846064681464024E5
:1002B0001BE0284641464746224600F06DF853466B
:1002C0005A46C01A914110D311461846224600F0F2
:1002D00054F82D1A67EB01084F46224601200021F1
:1002E00000F04BF817EB00094E41201EA4F1010469
:1002F000DFDC484631462A46434600F000B830BCB1
:10030000BDE8C09F40EA01039B0703D009E008C98C
:10031000121F08C0042AFAD203E011F8013B00F8CA
:10032000013B521EF9D2704700F0004230F000400D
:100330000AD0C10D01F56071C0F3160042EA015107
:10034000C20840071143704700200146704730B58E
:100350000B46014600202022012409E021FA02F583
:100360009D4205D303FA02F5491B04FA02F528441D
:10037000151EA2F10102F1DC30BD202A04DB203A77
:1003800000FA02F1002070479140C2F1200320FAE8
:1003900003F3194390407047202A04DB203A21FAE6
:1003A00002F00021704721FA02F3D040C2F120028E
:1003B00091400843194670472DE9FE4F804681EA77
:1003C0000300C00F0C46009021F0004123F00045CF
:1003D000B8EB0200A94105D24046214690461C4692
:1003E0000B46024623F00040104347D0270DC7F3C9
:1003F0000A00C3F30A510290401A019040286BDAB8
:10040000C3F3130040F4801B0098924620B10023F0
:10041000D2EB030A63EB0B0B01985946C0F1400283
:100420005046FFF7AAFF06460D4650465946019A28
:1004300000F098F910EB08006141002487EA11529E
:1004400084EAE7731A4340D0009A62B3019A012A02
:100450004FEA075215DC001B61EB02014FF000422E
:1004600002EA0752CDE90042001C41F580113246F4
:100470002B4600F098F903B000F045B840462146FD
:10048000F9E7001B61EB0201001C41F58013001825
:100490005B412018A2F5001747EB030140EAD57035
:1004A000B6196D4111E06D084FEA360645EAC07590
:1004B0004FEA0752001B61EB0201001C41F580115D
:1004C00049084FEA30000019514132462B4603B02B
:1004D00000F01CB800F058B9009801224000002339
:1004E000D0EB020263EBE073009821464FEAE07420
:1004F000B8EB000061EB0401E9E783F000435BE740
:1005000081F0004158E730BCBDE8C08F30BCBDE889
:10051000C04FFFF7DFBF2DE9FE4F81EA030404F06F
:10052000004421F0004100944FF0000B23F0004301
:1005300050EA01045ED052EA03045BD0C3F30A54CC
:10054000C1F30A552C44A4F2F3340194A0FB0254E5
:10055000C1F3130141F48011C3F3130343F4801377
:1005600001FB024400FB034E840A970A44EA8154CB
:1005700047EA8357A4FB076802958D0A05FB0785A8
:100580004FEA932C04FB0C542705029D4FEA0658B2
:1005900047EA1637B5EB08056EEB070C870E920E8F
:1005A00047EA811742EA8312A7FB0201B6EB0B016F
:1005B00064EB00042B0D43EA0C335E1844EB1C5033
:1005C000DA465146E7FB0201C5F313044FEA0B3349
:1005D00043EA14534FEA0432019C43EA0603A4F1B0
:1005E0000C040294009CCDE900B400F0DCF803B0E8
:1005F00000F003B800200146F9E730BCBDE8C08F29
:100600002DE9F04D81EA030404F0004B21F0004590
:1006100014464FF0000A23F0004150EA050220D0B2
:1006200054EA01021DD0C5F30A570246C5F313036D
:10063000C1F31300C1F30A5640F4801543F480134C
:10064000A7EB0608101BD64608F2FD3873EB050031
:1006500002D308F1010801E092185B41B8F1000FE4
:1006600003DA00200146BDE8F08D00204FF4801130
:10067000064684460EE0171B73EB050705D3121BD5
:1006800063EB050306434CEA010C49084FEA3000CE
:1006900092185B4150EA0107EDD152EA030012D0F3
:1006A00082EA040083EA0501084305D0101BAB4130
:1006B00006D20122002306E000224FF0004302E0B0
:1006C0006FF0010253101AEB06004CEB085110EBCF
:1006D0000A0041EB0B01BDE8F04D00F055B8C1F345
:1006E0000A52C1F3130140F2FF3341F480119A42E0
:1006F00002DA00200146704740F233439A42A2F2E8
:10070000334202DC5242FFF747BEFFF736BE00001D
:1007100030B5041E71F1000404DB4FF00044404288
:1007200064EB0101141E73F1000405DB1C464FF05D
:100730000043524263EB0403994208BF904230BD2C
:10074000064C074D06E0E06840F0010394E807001E
:1007500098471034AC42F6D3FFF71AFD0C5100084D
:100760002C510008202A06DBCB17203A41FA02F070
:1007700043EAE07306E041FA02F3D040C2F12002FE
:10078000914008431946704710B5141E73F10004D8
:1007900008DA401C41F1000192185B411A4301D173
:1007A00020F0010010BD2DE9F04D92469B4611B19D
:1007B000B1FA81F202E0B0FA80F220329046FFF7FF
:1007C000DCFD04460F4640EA0A0041EA0B015346AD
:1007D0005A46084313D0114653EA010019D0C8F114
:1007E00040025046FFF7D8FD05460E465046594692
:1007F0004246FFF7C2FD084305D0012004E0204631
:100800003946BDE8F08D0020054346EAE0762C43EA
:1008100037430A986305E40AA0EB08000022FD0AAA
:1008200044EA47540A3002D500200146E9E70105B1
:1008300010196941DDE9084500196941BDE8F04D2D
:10084000A2E770B58C1810F8015B15F0070301D111
:1008500010F8013B2A1106D110F8012B03E010F823
:10086000016B01F8016B5B1EF9D12B0705D4002346
:10087000521E0DD401F8013BFAE710F8013BCB1AE8
:10088000921C03E013F8015B01F8015B521EF9D5DD
:10089000A142D8D3002070BD04490968002903D0C3
:1008A000096B002900D008477047000000000020B5
:1008B00004480068002803D04068002800D00047A2
:1008C000704700000000002070B5084D0024A868A3
:1008D00080476A2801D0012405E0054805602968A1
:1008E00044F230408847204670BD0000740000206C
:1008F0000000002004480068002803D04068002859
:1009000000D00047704700000400002070B5074D7C
:100910000124A86880476A2806D10548056029682F
:1009200044F23C4088470024204670BDA8000020C7
:100930000400002010B5074CBE2061688847BC2821
:1009400001D0012010BD044804602168BE20884702
:10095000002010BD18000020080000200248006898
:100960008168BE2008470000080000200448006895
:10097000002803D04068002800D0004770470000DE
:100980000C00002004490968002903D0096B0029E4
:1009900000D00847704700000C000020E0B50F4D64
:1009A0000026A86880473D2801D0012613E00C48A6
:1009B00000210560582060F3070761F30F273846D0
:1009C00061F31740082161F31F604022214662F362
:1009D00007012A6890473046E0BD0000340000203F
:1009E0000C00002010B5074CBA2061688847B12878
:1009F00001D0012010BD044804602168BA20884756
:100A0000002010BD6800002010000020024800688F
:100A10008168BA20084700001000002010B5074C7C
:100A20000548206001F024FF206800210268BE20F4
:100A30009047002010BD000024000020140000207A
:100A400002480068C168BE2008470000140000206A
:100A5000FEE700004FF4FA770025314C03F050F91F
:100A600008B1E06840B103F04BF90028F6D0E06827
:100A70000028F3D0002648E000260FE0206808B1E7
:100A8000761C2560BE4209DB0120E06003F038F9E6
:100A90000028FBD1C82003F0D5F9DFE703F030F9D7
:100AA0000028DBD0EAE7206808B1761C2560BE424A
:100AB0002BDBE56000235A1E1946606B03F00AFF2A
:100AC00018A002F083FC00BF03F01AF90028FBD144
:100AD00003F016F90028FBD000231A461946606B74
:100AE00003F0F6FF002600231A461946206B03F098
:100AF000EFFFC82003F0A6F9761C062EF3DB00BF3B
:100B000003F0FEF80028FBD1A8E703F0F9F800286D
:100B1000C9D100231A461946206B03F0D9FF9DE77F
:100B2000DC000020506F776572696E6720646F7714
:100B30006E0A00007047000070B51B4886B0C16C9B
:100B400041F00401C164C16C01F004010591C16C64
:100B500041F00101C164C16C01F001010591C16C5A
:100B600041F00201C164C06C104E00F002004FF46D
:100B70008045059000222946304600F005F9002402
:100B80006810CDE9000469460948029400F012F8A3
:100B900001200095CDE9010469463046039400F038
:100BA00009F806B070BD00000010024000040048C3
:100BB000000800482DE9F84FDFF898B100234FF006
:100BC000010C4FF0030A4FF00F090BF1040EB9E0CE
:100BD0000CFA03F4224070D04D68022D01D0122D82
:100BE0000ED1DD0800EB8508D8F820505E07F70E1F
:100BF00009FA07F6B5430E69BE402E43C8F82060D7
:100C000007685E0091F804800AFA06F508F0030808
:100C1000AF4308FA06F848EA0708C0F800804F68B2
:100C2000012F05D0022F03D0112F01D0122F13D185
:100C3000D0F80880CF6828EA0508B74047EA0807D7
:100C40008760D0F804800F7928EA0408C7F30017FA
:100C50009F4047EA08074760D1F804806FEA080719
:100C6000BF0706D1C76AA743C8F3C0049C403C43F2
:100C7000C462C468AC438D68B5402543C5604C6808
:100C8000E4005ED5344C256E45F001052566246EE2
:100C900023F0030504F001040094304C2E19B468CD
:100CA0009D072F0F09FA07F5AC43B0F1904F05D01F
:100CB0002B4DA84204D101251CE042E0002519E09B
:100CC000284DA84201D1022514E0274DA84201D1A8
:100CD00003250FE0254DA84201D104250AE0244D4B
:100CE000A84201D1052505E0224DA84201D10625E3
:100CF00000E00725BD402543B560DBF800405D46B8
:100D00004E689443F60300D514432C60DEF800408F
:100D100075464E689443B60300D514432C600D4DC0
:100D200008352C684E689443F60200D514432C60B5
:100D3000084D0C352C684E689443B60200D5144318
:100D40002C605B1C0A6832FA03F57FF441AF00F0B7
:100D500013B80000000401400010024000000140F0
:100D60000004004800080048000C0048001000483B
:100D7000001400480018004818BCBDE8E08F006966
:100D8000084000D0012070470AB18161704781623C
:100D900070470000014800687047000020010020F3
:100DA00090F84120202A24D190F84020012A20D018
:100DB000012280F84020242280F841200268136834
:100DC00023F0010313600268136823F48053136057
:100DD000026813680B43136001680A6842F001025D
:100DE0000A60202180F84110002180F84010084658
:100DF00070470220704710B5040013D0242084F8F7
:100E000041002068016821F001010160204600F0E6
:100E1000D0F90020606484F8410044F8300FA074D9
:100E2000207410BD4FF400706064012010BD0000FC
:100E300070B5040004D094F84100002528B109E001
:100E40004FF400706064012070BD84F8405020466B
:100E500000F0B0F9242084F841002068016821F0F6
:100E6000010101606068216820F0706008612068FD
:100E7000816821F400418160E0680128A06807D002
:100E800040F4044021688860E068022803D006E04E
:100E900040F40040F6E721684FF4006048602068A5
:100EA0004168114A114341602068C16821F4004142
:100EB000C160D4E904010843A16940EA0120216826
:100EC000C860D4E907010843216808602068016808
:100ED00041F0010101606564202084F84100256330
:100EE00084F84250002070BD008000022DE9FF4FC1
:100EF00083B00446DDE9108790F84100DDF84890A2
:100F00009A469346202873D15FEA080014D09FB117
:100F100094F8400001286BD0012084F84000FFF7CE
:100F200039FF0646012200901923D103204601F023
:100F30000BF9002870D103E04FF4007060646BE09F
:100F4000222084F84100402084F842000025656496
:100F5000C4F8248067856563CDE9009653465A46F8
:100F60002046049901F076F810B184F8405053E01F
:100F7000618D3448FF274FF080784FF0007AFF29C9
:100F800004D927853A464346009005E0618D2185C6
:100F9000009094F8282053462046049901F0BEF8AA
:100FA0004B46002204212046009601F0CDF898BB64
:100FB0002068416A606A421C62620170208D401E96
:100FC00081B22185608D401E6085608DD8B1D1B918
:100FD0004B46002280212046009601F0B5F8D8B992
:100FE000608DFF2805D927853A464346009506E0DF
:100FF00026E0608D2085009594F8282053462046F1
:10100000049901F08BF8608D0028C9D13246494619
:10101000204601F0C5F818B1012007B000F016B85D
:1010200021682020C86121684A68074B1A404A603D
:1010300084F8410084F8425084F840500020ECE7E6
:101040000220EAE70024008000E800FE30BCBDE892
:10105000C08F00002DE9FF4F83B00446DDE9108703
:1010600090F84100DDF848909A469346202870D1C8
:101070005FEA080014D09FB194F84000012868D0BE
:10108000012084F84000FFF785FE0646012200900B
:101090001923D103204601F057F800286DD103E051
:1010A0004FF40070606468E0212084F84100402023
:1010B00084F8420000256564C4F824806785656370
:1010C000CDE9009653465A462046049900F0F4FFB5
:1010D00010B184F8405050E0608DFF274FF08078C9
:1010E0004FF0007AFF2804D927853A4643460095F9
:1010F00005E0608D2085009594F828205346204611
:10110000049901F00BF832464946204601F06EF88A
:1011100098BB606A411C6162216800788862608DBA
:10112000401E6085208D401E80B22085618DD9B122
:10113000D0B94B46002280212046009601F004F8E9
:10114000D8B9608DFF2805D927853A4643460095D2
:1011500006E026E0608D2085009594F8282053460F
:101160002046049900F0DAFF608D0028CBD132468A
:101170004946204601F014F818B1012007B000F0EC
:1011800015B821682020C86121684A68064B1A40BA
:101190004A6084F8410084F8425084F840500020AE
:1011A000ECE70220EAE7000000E800FE30BCBDE802
:1011B000C08F70477047000002480168491C0160F9
:1011C000704700002001002010B5032000F0AEF8A9
:1011D000002000F005F800F03DF8002010BD0000F0
:1011E00000B5014687B000221A2000F07FF81A20CF
:1011F00000F070F81348016E41F480210166006E22
:1012000005A900F480200690684600F065F900F01A
:1012100099F90D490D4AB0FBF1F10D48491E0260E4
:10122000416040F2E7320021C0E90321816000F013
:1012300054FC10B1012007B000BD054800F06AFC65
:10124000F9E700000010024040420F000048014052
:10125000740200201E4808B5016E41F001010166CC
:10126000016E01F001010091816D41F080518165B5
:10127000806D00F080500090032000F057F80022AD
:1012800011466FF00B0000F031F8002211466FF0AC
:101290000A0000F02BF8002211466FF0090000F060
:1012A00025F800221146501F00F020F800221146B8
:1012B000101F00F01BF800220F21901E00F016F8FE
:1012C00000220F21BDE80840501E00F00FB80000BA
:1012D0000010024000F01F020121914040098000EF
:1012E00000F1E020C0F8001170470000F0B40E4B90
:1012F0001B680C46C3F30223C3F10705042D00D974
:101300000425191D072901D2002300E0DB1E012658
:1013100006FA05F1491E214099409E40761E16406E
:101320003143F0BC01F056BA0CED00E0064900F084
:10133000070208684FF6FF03184040EA0220034AFC
:1013400010430860704700000CED00E00000FA0553
:101350001549B0F5007F0868C0F3412009D0022884
:1013600005D0086820F4C06040F480600860002068
:1013700070470128FBD0086820F4C06040F400707A
:1013800008600A480A4A0068B0FBF2F03222504373
:1013900000E0401E10B14A695205FAD44869400580
:1013A000E5D50320704700000070004024010020B4
:1013B00040420F000248006800F4C060704700001F
:1013C000007000402DE9F0470F46050058D03E4E12
:1013D000306800F00700B84209D2306820F00700FA
:1013E00038433060306800F00700B84248D12878B0
:1013F000364CC0072CD06868032811D0022812D0C0
:10140000216898B1490500293ADAA16821F0030161
:101410000143A160FFF7BEFC804641F2883910E02D
:1014200021688901EFE721688903ECE78907EAE78A
:10143000FFF7B0FCA0EB0801494502D90320BDE845
:10144000F087A068696800F00C00B0EB810FEFD165
:101450002878800705D5A068A96820F0F000084327
:10146000A060306800F00700B8420BD9306820F067
:10147000070038433060306800F00700B84201D000
:101480000120DCE72878400705D5A068E96820F44A
:10149000E0600843A0602878000706D5A0682969A5
:1014A00020F4605040EAC100A06000F05BF8A16841
:1014B000074AC1F30311515CC84006490860002087
:1014C000FFF78EFE0020BAE7002002400010024025
:1014D0004C500008240100200F2202600C4A93683F
:1014E00003F003034360936803F0F00383609368A1
:1014F00003F4E063C36092684FF4E06303EAD2024E
:1015000002610448006800F00700086070470000AE
:1015100000100240002002400148006870470000AF
:10152000240100200448054900688968044AC1F381
:101530000221515CC8407047240100200010024085
:101540008C5000080448054900688968044AC1F3C2
:10155000C221515CC84070472401002000100240A5
:101560008C50000830B52D49002318468A682C4C51
:1015700012F00C0F4FEA640514D08A68C2F381029E
:10158000032A04D1CA6802F00302012A0AD08A6839
:10159000C2F38102012A19D08A68C2F38102022AA9
:1015A00016D016E00A68120704D4D1F89420C2F3CA
:1015B000032202E00A68C2F303121A4B53F82230E6
:1015C0008A6812F00C0F04D1184602E0204600E0B1
:1015D00028468A68C2F38102032A1DD1C868CA68F6
:1015E00000F00300C2F30212521C022804D00328A8
:1015F00005D0B3FBF2F004E0B4FBF2F001E0B5FB80
:10160000F2F0CA68C968C2F306225043C1F34161CF
:10161000491C4900B0FBF1F030BD00000010024051
:101620000024F4005C5000082DE9F84304007DD04C
:101630002078FF4DC0065DD5A86810F00C0F0AD0C9
:10164000A0690028286873D040F001002860FFF7E7
:10165000A1FB064655E02868800702D5A06900284E
:10166000E5D0216A2868000703D5286800F0F0005B
:1016700004E0D5F89400F02202EA1010814216D955
:10168000084601F0B7F8002850D1286840F008005B
:1016900028602868216A20F0F00008432860686804
:1016A000E16920F47F4040EA0120686015E0286885
:1016B00040F0080028602868216A20F0F000084304
:1016C00028606868E16920F47F4040EA0120686092
:1016D000206A01F08FF80028D6D1FFF743FFA968F0
:1016E000D44AC1F30311515CC840D34908600020BB
:1016F000FFF776FD2CE000BFFFF74CFB801B0228B4
:101700007ED828688007F7D5286840F00800286050
:101710002868216A20F0F000084328606868E169C1
:1017200020F47F4040EA0120686011E0B2E0FFE76A
:1017300020F001002860FFF72DFB064605E000BF02
:10174000FFF728FB801B0228DAD828688007F7D427
:101750002078C00748D0A868C0F3810002281DD0B7
:10176000A868C0F38100032803D1E868C04380075C
:1017700014D06068B0F5803F17D0B0F5A02F28686E
:1017800017D020F480302860286820F4802028605A
:101790006068E0B1FFF7FEFA064614E028688003AF
:1017A00022D56068002875D01EE0286840F480309B
:1017B000EDE740F480202860F7E700BFFFF7EAFA82
:1017C000801B64289CD828688003F7D50CE0FFF7BD
:1017D000E1FA064605E000BFFFF7DCFA801B64284B
:1017E0008ED828688003F7D42078800742D5A8686F
:1017F000C0F38100012816D0A868C0F3810000E082
:10180000A9E0032804D1E86800F0030002280AD008
:10181000E068002828681DD040F480702860FFF739
:10182000B9FA06460BE0286840050BD5E0680028A9
:10183000B9D007E0FFF7AEFA801B022884D82868E9
:101840004005F7D56868217C20F0F85040EA016037
:1018500068600FE020F480702860FFF79BFA06466E
:1018600005E000BFFFF796FA801B022873D82868AE
:101870004005F7D42078000729D560690028D5F8FD
:10188000940013D040F00100C5F89400FFF782FAED
:10189000064606E0FBE000BFFFF77CFA801B02284B
:1018A00059D8D5F894008007F6D510E020F0010053
:1018B000C5F89400FFF76EFA064604E0FFF76AFAEF
:1018C000801B022847D8D5F894008007F6D42078EA
:1018D000400763D5A86D0026C00008D4A86D40F06D
:1018E0008050A865A86D012600F0805000905348F4
:1018F0000168C90511D40168804641F48071016016
:10190000FFF748FA074604E0FFF744FAC01B022835
:1019100021D8D8F80000C005F6D5A068012815D058
:101920000528D5F8900017D020F00100C5F89000E8
:10193000D5F8900020F00400C5F89000A06841F2AE
:101940008838C8B1FFF726FA074610E0D5F89000AE
:1019500040F00100F0E777E040F00400C5F89000A7
:10196000F4E700BFFFF716FAC11B41456CD8D5F864
:1019700090008007F6D50CE0FFF70CFA074604E06C
:10198000FFF708FAC11B414579D8D5F890008007C8
:10199000F6D41EB1A86D20F08050A865A06AE0B30F
:1019A000A968C1F38101032972D00228286820F0B8
:1019B0008070286011D02868000106D42868800053
:1019C00003D4E86820F00300E860E8681C49084098
:1019D000E860FFF7DFF9044654E0FFF7DBF906465D
:1019E00005E000BFFFF7D6F9801B022847D828681A
:1019F0008001F7D4206BE16A000110380843616B65
:101A0000A26B0902120941EA42410843A18F0D4A23
:101A1000490802EB4151084300E036E094F84010D9
:101A20004908120102EB41610843E86028680CE0B4
:101A3000001002404C5000082401002000700040BB
:101A4000FFFFEEFE0000E0FF19E040F0807028602C
:101A5000E86840F08070E860FFF79CF9044604E015
:101A6000FFF798F9001B022809D828688001F7D5EC
:101A70000BE000BFFFF78EF9001B022802D90320FC
:101A8000BDE8F88328688001F4D40020F8E7FFE778
:101A90000120F5E74FF0E0210428086903D020F089
:101AA00004000861704740F00400FAE710B5401EDA
:101AB000B0F1807F01D3012010BD4FF0E0246061C0
:101AC0000F21601700F086FE0020A0610720206132
:101AD000002010BD70477047704710B5040003D058
:101AE00094F83D0010B107E0012010BD002084F8FB
:101AF0003C00204600F00CF8022084F83D00211D37
:101B0000206801F0A9F9012084F83D00002010BDF3
:101B1000704700000168CA6842F00102CA600068AC
:101B2000826807490A40062A08D082680A40B2F54E
:101B3000803F03D0016841F001010160002070473F
:101B400007000100704770B50446006801694FF056
:101B50000005C943890715D4C168C943890711D451
:101B6000E91E0161012020772068806980072046F6
:101B700002D0FFF7E7FF04E000F0A7F8204600F0EE
:101B8000A5F8257720680169C943490717D4C168BA
:101B9000C943490713D46FF0040101610220207783
:101BA0002068806910F4407F204602D0FFF7CAFF0A
:101BB00004E000F08AF8204600F088F825772068D5
:101BC0000169C943090716D4C168C943090712D47A
:101BD0006FF008010161042020772068C069800748
:101BE000204602D0FFF7AEFF04E000F06EF820467A
:101BF00000F06CF8257720680169C943C90617D43D
:101C0000C168C943C90613D46FF0100101610820EF
:101C100020772068C06910F4407F204602D0FFF78B
:101C200091FF04E000F051F8204600F04FF82577CE
:101C300020680169C943C90708D1C168C943C907F8
:101C400004D1891E0161204600F042F82068016934
:101C5000C943090609D4C168C943090605D46FF010
:101C6000800101612046FFF736FF20680169C94302
:101C7000C90509D4C168C943090605D46FF4807148
:101C800001612046FFF726FF20680169C943490624
:101C900009D4C168C943490605D46FF04001016108
:101CA000204600F01FF820680169C94389060BD45B
:101CB000C168C943890607D46FF02001016120463D
:101CC000BDE87040FFF708BF70BD70477047000067
:101CD00000680349884201D1FFF76EBA70470000DF
:101CE00000480140704710B5040003D094F871001B
:101CF00010B107E0012010BD002084F870002046DC
:101D000000F026F8242084F871002068016821F092
:101D100001010160204601F091F90128EBD0606AD1
:101D200010B1204601F0F8F82068416821F4904194
:101D300041602068816821F02A0181602068016883
:101D400041F0010101602046BDE8104001F048B9B2
:101D500070472DE9F843044690F871001F46164677
:101D60000D4620284BD1C5B1BEB194F870000128B2
:101D700045D0012084F870004FF00008C4F874804A
:101D8000212084F87100FFF705F8A4F8506081461F
:101D9000A4F852604FF4805615E00120BDE8F883A6
:101DA0008021204601F09AFAD8B9A068B04201D14A
:101DB0002069C0B115F8010B21680885B4F85200FC
:101DC000401EA4F85200B4F852004B464FF00002F7
:101DD00000970028E4D14FF04001204601F07EFA40
:101DE00030B10320DAE735F8020BC0F30800E3E76F
:101DF000202084F8710084F870800020CEE7022053
:101E0000CCE710B50446C0B2202100F037FD20F029
:101E1000030040F08502E0B2BDE81040202100F050
:101E20004BBD00002DE9F8430446C0B202236A46C8
:101E3000B02100F035FD9DF80000022345089DF813
:101E400001006A464FEA5008E0B2B62100F028FDD2
:101E5000BDF90060E0B202236A46BA2100F020FD1D
:101E6000BDF90070E0B202236A46A82100F018FD17
:101E7000BDF900001849801B00EE100AA8EB050010
:101E8000F8EEC00A00EE100AB81BB8EEC00A60EE09
:101E9000800A00EE100AB8EEC00A80EE801A00EE4A
:101EA000105AB8EEC00A31EE000AB2EE041A60EE23
:101EB000010A10EE900A884202DDDFED080A06E012
:101EC000F5EEC00AF1EE10FA01D2DFED050A80EE60
:101ED000810ABDE8F883000000007A4400007A44DB
:101EE0000000000010B5044600F0C2FCE0B2BDE8FE
:101EF00010400F2100F0C2BC10B50446C0B2202132
:101F000000F0BCFC20F0030040F08502E0B2BDE828
:101F10001040202100F0D0BC2DE9F8430446C0B2A7
:101F200002236A46B22100F0BBFCE0B2352100F08A
:101F3000A5FC9DF8001000F0030241EA02219DF883
:101F4000012000F00C0042EA8010CD104FEAE008BA
:101F5000E0B204236A46BC2100F0A2FCBDF9006097
:101F6000BDF90270E0B202236A46AA2100F098FC93
:101F7000BDF90000801B00EE100AA8EB0500F8EE8A
:101F8000C00A00EE100AB81BB8EEC00A60EE800A64
:101F900000EE100AB8EEC00A80EE801A00EE105A69
:101FA000B8EEC00A31EE000ABDE8F883FEE701682A
:101FB0008A69D243920701D400228A62006881694B
:101FC000C943C90703D0816941F0010181617047AC
:101FD0002DE9F0410446006890460E468069C043F2
:101FE000C00633D40025202720688069C0438006BE
:101FF00015D5701CF8D0FEF7CDFEA0EB0800B0425E
:1020000001D8002EF0D154F8440F40F0200044F8DD
:1020100004096770A57025700120BDE8F081216872
:102020001020C8612068C7612046FFF7C0FF54F840
:10203000440B4168064A11404160206840F00400AA
:1020400044F820096777A5772577E5E70020E4E7DE
:1020500000E800FE2DE9F84304461646DDE908973E
:1020600014489846DAB200900023204600F056F853
:102070003A464946204600F0B9F8B8B9F5B2B8F189
:10208000010F08D02168300A88623A464946204646
:1020900000F0ACF850B9206885624B460022402120
:1020A0002046009700F050F8002800D00120BDE83D
:1020B000F8830000002000802DE9F843044616460E
:1020C00015489846DDE90897DAB2C3020090204629
:1020D00000F024F83A464946204600F087F8B8B99F
:1020E000F5B2B8F1010F08D02168300A88623A468B
:1020F0004946204600F07AF850B9206885624B4680
:10210000002280212046009700F01EF8002800D011
:102110000120BDE8F883000000200080F0B50568CC
:10212000059C68684FF48066064FC1F3090106EA12
:10213000545641EA02413E431943B0432143084308
:102140006860F0BDFF63FF032DE9F0411D461746AF
:102150000E460446DDF8188008E0681C06D0FEF73D
:1021600019FEA0EB0800A8420BD855B12068806981
:1021700036EA000012D00020B842EED00020BDE8C0
:10218000F08154F8440F40F0200044F80409202066
:1021900060700020A07020700120F0E70120EBE7C4
:1021A00070B516460D4604460DE0324629462046D7
:1021B000FFF70EFF08B1012070BDFEF7EBFD801B9D
:1021C000A84207D835B120688069C0438006ECD4A6
:1021D000002070BD54F8440F40F0200044F804097A
:1021E000202060700020A0702070E4E770B51646D3
:1021F0000D4604460FE0324629462046FFF7E8FE2A
:1022000008B1012070BD681C05D0FEF7C3FD801B1E
:10221000A84207D835B120688069C0438007EAD456
:10222000002070BD54F8440F40F0200044F8040929
:10223000202060700020A0702070E2E710B50446F6
:10224000FEF7D9FD2046BDE8104000F001B80000BF
:1022500010B504460B4820600B4860600020012147
:10226000C4E9020120616061E0612062204600F063
:102270000DF82046FEF7DCFD2046BDE810400021A9
:10228000FEF78EBD005800408126700030B5204C0E
:1022900087B0E06C40F00200E064E06C1D4D00F09F
:1022A000020005904FF44060009012200190012040
:1022B0000290032003900420049069462846FEF70C
:1022C00079FC69462846FEF775FCA06D40F4800055
:1022D000A065A06D00F480000590A06B40F4800024
:1022E000A063A06B20F48000A06300220F212120B6
:1022F000FEF7FCFF2120FEF7EDFF00220F21222038
:10230000FEF7F4FF2220FEF7E5FF07B030BD000026
:102310000010024000040048FEB50D460646DDE907
:1023200008014FF47A748DE8130029463046FEF711
:10233000DDFD040003D029463046FFF77FFF20462D
:10234000FEBDFEB50D460646DDE908014FF47A7480
:102350008DE8130029463046FEF77CFE040003D0CA
:1023600029463046FFF76AFF2046FEBD10B5222100
:102370003C2000F083FA40F003022221BDE8104027
:102380003C2000F099BA70B504460D46C2B2202137
:102390003C2000F091FAC4F3072221213C2000F0F8
:1023A0008BFAC4F3074222213C2000F085FA220E6A
:1023B00023213C2000F080FAEAB2BDE870402421DD
:1023C0003C2000F079BA10B5044622213C2000F0F0
:1023D00055FA20F020020CB142F020022221BDE883
:1023E00010403C2000F068BA10B500F041FA0F210F
:1023F000BDE810403C2000F041BA000070B5054631
:102400002DED028B86B000249FED248A21213C20F3
:1024100000F034FA0646062303AAA8213C2000F067
:102420003FFA03A80DF1040200EB440310F8141066
:102430005B7801EB032122F81410641CE4B2032C36
:10244000F2D316F0600006D0202807D0402808D02C
:1024500060280BD108E09FED128A07E09FED118AFA
:1024600004E09FED118A01E09FED108A5FF000010A
:1024700032F9110000EE100AB8EEC00A20EE080A88
:10248000BDEEC00A10EE100A25F81100491CC9B2B1
:102490000329EDD306B0BDEC028B70BD0000000037
:1024A000295C0F3EE17A943EF628DC3EE17A143F47
:1024B00010B50446C0B21A2100F0E0F940F0010264
:1024C000E0B21A2100F0F8F9E0B2102100F0D6F9DC
:1024D00020F0720040F03202E0B2BDE8104010215E
:1024E00000F0EAB9FFF7E4BF10B5044600F0C0F908
:1024F000E0B2BDE810400F2100F0C0B9F8B50024EB
:10250000074625464FEA0D0605F12800C1B2F8B28C
:1025100000F0B4F970556D1CEDB2032DF4D300201A
:10252000C200315C91402143401CC0B20C460328DC
:10253000F6D3200201D541F07F4464204443E017E4
:1025400004EB1050001300EE100A9FED031AF8EE92
:10255000C00A80EE810AF8BD0000C84210B5102103
:10256000D42000F08BF920F0F0021021BDE81040DB
:10257000D42000F0A1B910B504461021D42000F0F9
:102580007DF920F0FC02E1B20A431021D42000F0D2
:1025900093F91221D42000F071F920F0440242EAAC
:1025A00014221221BDE81040D42000F085B910B5E6
:1025B00004461521D42000F061F920F010020CB17E
:1025C00042F010021521BDE81040D42000F074B98B
:1025D00010B500F04DF90F21BDE81040D42000F0F7
:1025E0004DB9000070B505462DED028B86B0002474
:1025F0009FED248A1021D42000F040F906460623DE
:1026000003AA2821D42000F04BF903A80DF10402FD
:1026100000EB440310F814105B7801EB032122F85F
:102620001410641CE4B2032CF2D316F00C0006D094
:1026300004280DD0082805D00C280BD105E09FED0B
:10264000128A07E09FED118A04E09FED118A01E0F4
:102650009FED108A5FF0000132F9110000EE100AC0
:10266000B8EEC00A20EE080ABDEEC00A10EE100A4D
:1026700025F81100491CC9B20329EDD306B0BDEC01
:10268000028B70BD0000000023DB793D23DBF93DA8
:1026900023DB793E23DBF93E10B51121D42000F075
:1026A000EDF820F0F0021121BDE81040D42000F038
:1026B00003B910B504461121D42000F0DFF820F052
:1026C000FC02E1B20A431121D42000F0F5F81221F6
:1026D000D42000F0D3F820F0440242EA1422122160
:1026E000BDE81040D42000F0E7B810B5044616212C
:1026F000D42000F0C3F820F080020CB142F0800238
:102700001621BDE81040D42000F0D6B810B500F076
:10271000AFF80F21BDE81040D42000F0AFB80000A2
:1027200070B505462DED028B86B000249FED238AFF
:102730001121D42000F0A2F80646062303AA222184
:10274000D42000F0ADF803A80DF1040200EB44031F
:1027500010F814105B7801EB032122F81410641CAC
:10276000E4B2032CF2D316F00C0006D0042807D0F4
:10277000082808D00C280BD108E09FED118A07E04B
:102780009FED108A04E09FED108A01E09FED0F8A13
:102790005FF0000132F9110000EE100A05EB810034
:1027A000491CB8EEC00AC9B2032920EE080A80ED20
:1027B000000AEFD306B0BDEC028B70BD0000000034
:1027C00000000C4100008C4100000C4200008C42D3
:1027D000FEE770470907090E002806DA00F00F002F
:1027E00000F1E02080F8141D704700F1E02080F82F
:1027F00000147047F8B51C4D06460024A86DC000B3
:1028000002D5FEF7D7FD0DE0A86D40F08050A86519
:10281000A86D00F080500090FEF7CCFDA96D21F06E
:102820008051A965B0F5007F04D0802E07D94FF004
:1028300003040AE0802E08D9A02E01D804E001D1BB
:10284000022402E0702E00D101240848016821F022
:10285000070121430160006800F00700A04201D099
:102860000120F8BD0020F8BD001002400020024009
:102870000148FFF7EDBC00008C0100200EB50022DE
:102880008DF80820012302AACDE900230A4601465B
:102890000248FFF741FD9DF808000EBD8C010020A5
:1028A0001CB5CDE900230A46014601230148FFF784
:1028B00033FD1CBD8C01002007B582B0012304AAA2
:1028C000CDE900230A4601460248FFF73AFD05B06C
:1028D00000BD00008C01002008B5FDF7F5FF4FF0AA
:1028E000FF35264C0FE000BFFDF7E2FF00232A462C
:1028F0001946206B01F0EEFF012804D1FDF7E4FF3B
:102900000020606004E0E06810B160680028EBD14E
:10291000C82001F097FA00232A461946606B01F09F
:10292000D9FFE06840B1606830B100231A4619460B
:10293000606B02F0CDF8E6E710483830FDF7ACFFE9
:102940000E483830B0F904100091B0F90230B0F9F7
:1029500000200BA1124800F049FD0120A060A068F2
:102960000028FCD1E0680028CDD060680028CAD0DB
:102970004FF47A7001F066FAC5E70000DC00002031
:10298000416363656C3A2058203D2025642059201E
:102990003D202564205A203D2025640A00000000C7
:1029A000D801002008B5FDF7B1FF4FF0FF35264CE8
:1029B0000FE000BFFDF79EFF00232A461946206B5B
:1029C00001F088FF012804D1FDF7A0FF042060601A
:1029D00004E0E06810B160680428EBD1C82001F081
:1029E00031FA00232A461946606B01F073FFE06854
:1029F00048B16068042806D000231A461946606B67
:102A000002F066F8E5E710483830FDF745FF0E485C
:102A10003830B0F904100091B0F90230B0F900205C
:102A20000AA1114800F0E2FC0120A060A068002883
:102A3000FCD1E0680028CCD060680428C9D04FF4ED
:102A40007A7001F0FFF9C4E7DC0000204779726F6B
:102A50003A2058203D2025642059203D202564201F
:102A60005A203D2025640A00D8010020FDF762FFAE
:102A70004FF0FF35244C0AE000232A461946206B0C
:102A800001F028FF012802D10520606004E0E06821
:102A900010B160680528EFD1C82001F0D3F90023F8
:102AA0002A461946606B01F015FFE06848B160687E
:102AB000052806D000231A461946606B02F008F874
:102AC000E5E711483830FDF7E7FEFDF747FF10EE68
:102AD000100AFDF729FC41EC100B0CA153EC102B54
:102AE0000E4800F083FC0120A060A0680028FCD103
:102AF000E0680028CBD060680528C8D04FF47A7011
:102B000001F0A0F9C3E70000DC00002048756D6902
:102B1000646974793A2025660A000000D801002013
:102B200008B5FDF73BFF4FF0FF35264C0FE000BF27
:102B3000FDF71CFF00232A461946206B01F0CAFE50
:102B4000012804D1FDF72AFF0220606004E0E0685C
:102B500010B160680228EBD1C82001F073F900239E
:102B60002A461946606B01F0B5FEE06848B160681E
:102B7000022806D000231A461946606B01F0A8FF10
:102B8000E5E710483E30FDF7FDFE0E483E30B0F957
:102B900004100091B0F90230B0F900200AA11248E7
:102BA00000F024FC0120A060A0680028FCD1E068AF
:102BB0000028CCD060680228C9D04FF47A7001F0A8
:102BC00041F9C4E7DC0000204D61676E65746F3A1F
:102BD0002058203D2025642059203D202564205A7E
:102BE000203D2025640A0000D8010020FDF7FAFEF0
:102BF0004FF0FF35234C0CE000232A461946206B8A
:102C000001F068FE012804D1FDF7ECFE03206060AE
:102C100004E0E06810B160680328EDD1C82001F03D
:102C200011F900232A461946606B01F053FEE06853
:102C300048B16068032806D000231A461946606B25
:102C400001F046FFE5E7FDF7E1FE10EE100AFDF7A3
:102C50006BFB41EC100B0CA153EC102B0E4800F059
:102C6000C5FB0120A060A0680028FCD1E068002816
:102C7000CFD060680328CCD04FF47A7001F0E2F82E
:102C8000C7E70000DC000020507265737375726541
:102C90003A2025660A000000D8010020FDF7BEFE9C
:102CA000234C4FF0FF350126C82001F0CBF807E098
:102CB00000232A461946206B01F00CFE012816D08D
:102CC000E06810B160680128F2D100232A46194655
:102CD000606B01F0FFFDE06858B16168012908D020
:102CE00000231A461946606B01F0F2FEDCE76660CD
:102CF000EBE7FDF7A5FE10EE100AFDF715FB41EC22
:102D0000100B0CA153EC102B0F4800F06FFB20466A
:102D1000A66081680029FCD1C1680029C4D0406840
:102D20000128C1D04FF47A7001F08CF8BCE70000A4
:102D3000DC00002054656D70657261747572653ACF
:102D40002025660A00000000D801002000F0F8FAF3
:102D5000084C0025A0680028FCD0074907A000F017
:102D600035FBA56000231A461946606B01F0B0FEE2
:102D7000F0E70000DC000020D801002025730000EF
:102D800002490120086001F069B80000DC00002061
:102D900010B596B01020009001200024602106900C
:102DA000CDE907410221CDE90A100C9028200D90B1
:102DB0000720CDE90E0168461091FEF735FC00B101
:102DC000FEE70F2011900320CDE912041494042192
:102DD00011A81594FEF7F6FA00B1FEE74FF4007063
:102DE000FEF7B6FA00B1FEE7FEF796FB00EB8000B7
:102DF000FEF75CFE0420FEF74DFE00220F21501E60
:102E0000FEF774FA16B010BD0D48016841F4700168
:102E100001600C48016841F00101016000218160FE
:102E20000268094B1A4002608214C260026822F4F0
:102E30008022026081610249C003803908607047C6
:102E400088ED00E000100240FFFFF6EA0148FEF7BF
:102E50007ABE0000740200202DE9F0470268264B7C
:102E6000264D274E274F284C4FF0804A984209D0D4
:102E7000504507D0A84205D0B04203D0B84201D097
:102E8000A04204D122F0700C4A6842EA0C02DFF83A
:102E90007CC0DFF87C80DFF87C9098420FD05045F2
:102EA0000DD0A8420BD0B04209D0B84207D0A04202
:102EB00005D0604503D0404501D0484503D122F4F8
:102EC0004075CA682A434D6922F080022A43026095
:102ED0008A68C2620A688262984207D0A04205D01E
:102EE000604503D0404501D0484501D109690163DF
:102EF00001214161BDE8F087002C01400004004041
:102F000000080040000C0040003401400040014037
:102F1000004401400048014090F82410C90706D041
:102F200001684A68836A22F400321A434A6090F8C2
:102F30002410890706D501684A68C36A22F48032E2
:102F40001A434A6090F82410490706D501684A6878
:102F5000036B22F480221A434A6090F82410090778
:102F600006D501684A68436B22F400421A434A605E
:102F700090F82410C90606D501688A68836B22F48C
:102F800080521A438A6090F82410890606D5016899
:102F90008A68C36B22F400521A438A6090F82410A6
:102FA000490611D501684A68036C22F480121A435D
:102FB0004A60016CB1F5801F06D101684A68436C14
:102FC00022F4C0021A434A6090F82410090606D57C
:102FD00001684A68806C22F4002202434A6070470C
:102FE000F8B5002604464667FDF7D4FE054620687E
:102FF00000686FF07E47000708D52B4600224FF48B
:1030000000112046009700F069F960B92068006857
:1030100040070AD52B4600224FF480012046009736
:1030200000F05CF908B10320F8BD202084F871009D
:1030300084F8720084F870600020F8BD2DE9F0413A
:103040000446016880682369E669184363691025AE
:10305000002733431843954A0B68954E334003438A
:103060000B6020684168E36821F4405119434160D6
:103070002168A069914201D0236A18438B6823F428
:10308000306303438B608B4B21688B4899420DD191
:10309000D0F8880010F0030006D001285AD002288A
:1030A00056D0032859D157E0012556E0834B994269
:1030B0000BD1D0F8880010F00C0047D0042849D07C
:1030C000082845D00C2848D146E07D4B99420BD1C9
:1030D000D0F8880010F0300038D010283AD02028DE
:1030E00036D0302839D137E0764B99420BD1D0F821
:1030F000880010F0C00029D040282BD0802827D08D
:10310000C0282AD128E0704B99420ED1D0F888000F
:1031100010F440701AD0B0F5807F1BD0B0F5007F5E
:1031200016D0B0F5407F18D116E0914215D1D0F8F5
:10313000880010F4406009D0B0F5806F0AD0B0F577
:10314000006F05D0B0F5406F07D105E0002504E021
:10315000022502E0042500E008255C4B00264FF420
:10316000004091423DD135B1022D07D0042D07D04A
:10317000082D10D107E0FEF7D5F903E0184602E06C
:10318000FEF7F0F9A8B3626802EB4201814202D86F
:10319000B0EB023F01D9012775E0DFF834815DB162
:1031A000022D0CD0042D13D0082DF4D15008290580
:1031B000401846F1000105E0FEF7B4F90AE05008B6
:1031C0004449F5E70023FDF769F8A0F5407156E0A2
:1031D000FEF7C8F96268010E030250081818714121
:1031E000F0E7E1694FF6EF7881422FD1092DD2D275
:1031F00000E048E0DFE805F00609200523050505A5
:103200002600C8E7FEF78EF901E0FEF79BF94100C2
:10321000D4F8040001EB5001B1FBF0F080B2A0F152
:1032200010014145B7D84FF6F0710140C0F342009C
:1032300001432068C16026E027496068EAE7FEF79D
:1032400091F9E4E74FF480316068E3E7092DA2D2F9
:10325000DFE805F006091E052205050525009AE7A9
:10326000FEF760F901E0FEF76DF90146606801EBD9
:10327000500100BFB1FBF0F080B2A0F11001414558
:1032800089D82168C860266638466666BDE8F08140
:10329000606803EB5001EDE7FEF764F9E5E761686C
:1032A00000EB5100B0FBF1F0E6E7000000800040C9
:1032B000F369FFEF00380140001002400044004075
:1032C00000480040004C0040005000400024F40042
:1032D000FFFC0F00000024F40048E8012DE9F04154
:1032E000984617460E460446069D1DE0681C1BD0F6
:1032F0002DB1FDF74FFDA0EB0800A84214D92068BE
:10330000016821F4D07101602068816821F0010119
:103310008160202084F8710084F87200002084F815
:1033200070000320BDE8F0812068C06936EA000023
:1033300004D00020B842D9D00020F3E70120F9E7FB
:1033400010B51E4886B01C4901604FF4E131416060
:10335000002181600C22C160C0E904128161C16159
:10336000016241621648C26C42F00202C264C26C41
:1033700002F002020592026E42F480420266006E82
:10338000104C00F480400590402000900220CDE9D0
:10339000021001900720049069462046FDF70AFCC0
:1033A0008020009069462046FDF704FC0348FEF7A4
:1033B0009AFC06B010BD000000380140FC0100205E
:1033C0000010024000040048FEE700000FB4054B67
:1033D00010B503A9044A029800F0F2F810BC5DF899
:1033E00014FB00001D3D0008880100200FB4084BAD
:1033F00010B504A902AA039800F0E2F8044602A955
:10340000002000F077FC204610BC5DF814FB0000A3
:10341000F53C000802E008C8121F08C1002AFAD1D2
:1034200070477047002001E001C1121F002AFBD144
:10343000704700002DE9FF5F82B00021DDE9043014
:10344000020DDDF840B0034318D044F61050A2F24C
:10345000FF3242431514119801281FD0A5EB0B0031
:10346000401C5FEA000A4FF000064E4FDFF838912B
:10347000B046504615D5CAF1000413E01198012456
:103480004AA3012801D16FEA0B010298119AC0E901
:103490000031C0E9024206B000F08EB8CBF1000066
:1034A000DFE704460021404A491842EB0450CDE9C9
:1034B000001012E0E00707D032463B46404649463E
:1034C000FDF729F88046894632463B4610461946A4
:1034D000FDF721F806460F466410002CEAD1DDE91D
:1034E0000401DDE90023BAF1000F06DAFDF713F855
:1034F00042464B46FDF70FF805E0FDF781F84246DE
:103500004B46FDF77DF804460E460022284BFDF79A
:10351000FFF803D84FF0FF30014607E00022254BAB
:1035200020463146FCF748FFFDF7D9F8102409E0A2
:10353000002C0ADB0A220023FCF7B0FE039B30328A
:103540001A55641E50EA0102F2D1641C039AC4F1B8
:1035500011031444119A012A03D0012208430DD10A
:103560000AE0084304D000204FF0110B119072E7DD
:10357000A3EB0B056D1E0DE05B4504DD4FF0000273
:1035800005F1010504E003DA4FF00002A5F10105A1
:10359000002AECD002981199C0E90231C0E9004537
:1035A00079E70000000014400000F03F3000000008
:1035B0000000F0430000E03F30BCBDE8C09F0000C9
:1035C0002DE9FF4F95B09B468946064600250FE240
:1035D000252877D100242746F84A0121059400E0E8
:1035E000044316F8013F203B01FA03F01042F7D1E3
:1035F00030782A2811D06FF02F033078A0F13002F4
:10360000092A16D8059A44F0020402EB820203EB61
:1036100042021044761C0590EFE759F8042B0592FE
:10362000002A03DA504244F40054059044F00204A6
:10363000761C30782E2816D116F8010F44F00404B9
:103640002A280DD06FF02F023078A0F13003092B1B
:1036500009D807EB870302EB4303C718761CF3E78F
:1036600059F8047B761C30786C280FD006DC4C2887
:1036700017D068280DD06A2814D104E0742810D01F
:103680007A280FD10DE044F400140AE044F48014C9
:1036900001E044F440147278824202D104F58014AF
:1036A000761C761C307866280BD013DC582877D02F
:1036B00009DC002875D04528F6D04628F4D04728E4
:1036C0001AD19DE118E0632835D0642879D06528A7
:1036D00012D195E1702873D008DC6728F1D06928F1
:1036E0006FD06E280DD06F2806D1B5E073282CD08E
:1036F000752875D0782874D05A46179990476D1C54
:1037000075E1C4F30250022809D003280DD0D9F87E
:10371000001004280DD00D6009F1040967E1D9F803
:103720000010EA17C1E90052F6E7D9F800100D8041
:10373000F2E70D70F0E719F8041B8DF80010002077
:103740008DF80100EA46012003E059F804AB4FF080
:10375000FF3061074FF0000102D40DE008F10101D4
:103760008846B9420FDA8045F8DB1AF808100029BC
:10377000F4D108E008F1010188468142FADB1AF829
:1037800008100029F6D105985B46A0EB08072146F2
:103790003846179A00F097FA284400EB080507E02E
:1037A0004DE029E10DE01AF8010B5A4617999047B0
:1037B000B8F10108F7D25B4621463846179A13E163
:1037C00042E00A220092C4F302524FF0000A022A99
:1037D00008D059F804CB032A4FEAEC710AD00DE067
:1037E00029E02AE009F1070121F00702F2E802C10D
:1037F000914609E00FFA8CFC4FEAEC71042A03D1E0
:103800004FFA8CFC4FEAEC71002907DA0A460021D6
:10381000DCF1000C61EB02012D2202E0220504D54F
:103820002B228DF80420012203E0E20701D02022A0
:10383000F7E7904659E00A2102E010220DE010213E
:103840004FF0000A00910BE010224FF0000A44F004
:1038500004040827009203E008224FF0000A0092B7
:10386000C4F30252022A05D059F804CB0021032ADE
:1038700008D009E009F1070121F00702F2E802C1CE
:10388000914605E01FFA8CFC042A01D10CF0FF0CD4
:103890004FF00008220728D5702806D0009B83F03F
:1038A000100353EA0A0305D00EE040228DF80420ED
:1038B000012208E05CEA010206D030228DF80420E3
:1038C0008DF8050002229046009B83F0080353EA1E
:1038D0000A030AD15CEA010201D1620705D5302250
:1038E0008DF804204FF001087F1E582804D034A022
:1038F00003900EA802900DE036A0F9E7534660460B
:10390000009AFCF7CBFC84460398825C0298401E28
:10391000029002705CEA0100F0D1029806A9081A30
:1039200000F1200A600702D524F4803400E001276A
:10393000574502DDA7EB0A0000E0002000EB0A017A
:10394000009005984144401A0590E00306D45B4678
:103950002146179A059800F0B6F90544002706E0BD
:1039600001A85A46C05D179990476D1C7F1C4745BA
:10397000F6DBE0030CD55B462146179A059800F06C
:10398000A2F9054404E030205A46179990476D1C6F
:103990000099481E00900029F5DC08E00298029981
:1039A0005A460078491C0291179990476D1CBAF14C
:1039B0000001AAF1010AF1DC65E10000092801001B
:1039C0003031323334353637383961626364656695
:1039D0000000000030313233343536373839414257
:1039E000434445460000000000F05BF90544761CA6
:1039F000307800287FF4ECAD19B0284600F04EB9BD
:103A0000620700D4062709F1070222F0070CFCE840
:103A10000223E14603F000485FEA080C02D00FF2EF
:103A2000702C0DE05FEA045C02D50FF2682C07E011
:103A30005FEAC47C02D00FF2602C01E0AFF2700CA0
:103A40004FF0FF3823F00043CDF850C065280CD06C
:103A500006DC452809D046281DD047283DD13DE049
:103A6000662818D067287ED138E00021112F01DBAD
:103A7000112000E0781CCDE9000106A90EA8FFF78F
:103A8000D9FCDDE90F010E9A03910021009207F1A4
:103A9000010A04914DE04FF000400097CDE901107C
:103AA00006A90EA8FFF7C6FCDDE90F0203920E9BE4
:103AB00011990022DDF80CA00093049211B9791C31
:103AC00000EB010AB7EB0A0004D4C0F1FF3007F1A4
:103AD000010A0490AAEB0700019044E0012F00DAEC
:103AE00001270021112F01DD112000E03846CDE92A
:103AF000000106A90EA8FFF79DFCDDE90F010E9A53
:103B00000391002104910092BA4621070CD4039935
:103B1000514500DA8A46BAF1010F05DD009AAAF193
:103B20000101515C302908D0B84202DA10F1040FCB
:103B300006DA0121CDE9011015E0AAF10101E9E75A
:103B4000002805DC049901440491AAEB000102E07D
:103B5000411C514500DD8A460499401A401C0190E1
:103B60004FF000400290200704D40198504501DB3B
:103B7000CDF8048000208DF84F0002980DF14F071A
:103B8000B0F1004F25D02B200E9002984FF0020884
:103B900000280CDA404202902D200E9007E00A2106
:103BA0000298FCF7D4FB3031029007F8011DB8F100
:103BB0000001A8F10108F2DC02980028EFD1791E7B
:103BC0000E980870307800F0200040F0450007F8AB
:103BD000020D12A8C01B00F107081498007800B16C
:103BE000012000EB0A01019801EBE07105984144C6
:103BF000401A401E0590E00306D45B462146179A02
:103C0000059800F060F805441498007818B15A46F9
:103C1000179990476D1CE00324D55B462146179AFF
:103C2000059800F050F805441CE00498002807DBD4
:103C3000DDE90301884203DD0098405C179901E04B
:103C4000179930205A469047049805F10105401C09
:103C500004900198401E019004D12E205A461799D5
:103C600090476D1CBAF10001AAF1010ADDDC05E004
:103C700017F8010B5A46179990476D1CB8F10001CF
:103C8000A8F10108F4DC5B462146179A0598ABE6DB
:103C90002D0000002B0000002000000030BCBDE81B
:103CA000C08F2DE9F041044600251E4617468804C2
:103CB00004D405E039462020B0476D1C641EF9D5B8
:103CC0002846BDE8F0812DE9F041044600251E4656
:103CD0009046C80301D5302700E02027880404D58A
:103CE00005E041463846B0476D1C641EF9D52846AC
:103CF000BDE8F0810A68531C0B601070704700002B
:103D000010B54FF400510448FDF739F808B1002010
:103D100010BD012010BD00000008004813B547F297
:103D200030542346012269460348FEF712F8002862
:103D3000F7D100981CBD0000FC010020A8B0FDF7E1
:103D400043FAFFF725F8FCF7F7FE032200210120D4
:103D500000F09CFD364C032200216063012000F03E
:103D600095FD00231A461946206300F0B1FE00239A
:103D70001A461946606B00F0ABFE14222D496846C6
:103D8000FCF7C0FA0021684600F072F8294920616A
:103D90001422143105A8FCF7B5FA002105A800F09B
:103DA00067F824496061142228310AA8FCF7AAFAAE
:103DB00000210AA800F05CF81E49E06114223C31A1
:103DC0000FA8FCF79FFA00210FA800F051F819493D
:103DD00020621422503114A8FCF794FA002114A890
:103DE00000F046F81349A0611422643119A8FCF7C9
:103DF00089FA002119A800F03BF80E49E06214226C
:103E000078311EA8FCF77EFA00211EA800F030F8D9
:103E10000849A06214228C3123A8FCF773FA002110
:103E200023A800F025F8606200F013F8FEE7000018
:103E3000DC000020AC4F000801460020842900D09F
:103E4000C81C704710B500B9012000F097FB002096
:103E500010BD10B500F02AFC002010BD10B500F018
:103E60004BFF012803D0BDE8104000F0F9BC10BDA5
:103E70003EB504460D46B0F90800FFF7DDFF02A984
:103E8000CDE90001208A2B4682B2D4E9001000F06F
:103E900005FF012801D000203EBD02983EBD000074
:103EA0002DE9F041184C0F460546E6682068001DD4
:103EB00000F0AEFA38B9206890F82C100120884044
:103EC000216981432161681C07D137B12168BDE8B0
:103ED000F0410E48091D00F0D3BA20683544B542C0
:103EE0004560216805D2A06BBDE8F041091D00F0D6
:103EF000AFBA606B091D00F0ABFAA06A854200D230
:103F0000A562BDE8F08100004C010020001B0020EC
:103F10002DE9F041054600F0BFFA2E4CA068401C88
:103F2000A06020682C4F10B1606940B32DE025607F
:103F3000A068012829D1002606EB860007EB800047
:103F400000F078FA761C072EF6D323488C3000F068
:103F500071FA2148A03000F06DFA1F48B43000F02B
:103F600069FA1D48C83000F065FA1B48DC3000F0E3
:103F700061FA19488C3060631430A06305E0206852
:103F8000E96AC06A884200D82560606A401C6062A5
:103F9000E96A0120226988401043206101EB810019
:103FA00007EB8000291D00F06BFA00F095FA6069BC
:103FB00000280CD02068E96AC06A884207D2074905
:103FC0004FF080500860BFF34F8FBFF36F8FBDE895
:103FD000F08100004C010020241A002004ED00E0D4
:103FE00070B5114E114C17E000F094FB3068B8B179
:103FF00000F07AFF00F050FAF068C568281D00F064
:1040000007FAA068401EA0606068401E606000F073
:1040100063FA284600F055F860680028E4D170BDC6
:1040200000F062FFF8E70000EC1A00204C010020CD
:1040300030B4026C0B46002A0BD0C1681144C16039
:104040004468A14201D30168C16030BC1846FCF746
:1040500059B930BC70472DE9F041856B17460446CD
:104060000026026C82B1C7B1E068FCF74BF9E16849
:10407000206C091AE1602268914202D26168081A34
:10408000E060022F16D017E02068A8B9606800F041
:10409000A5FE0646002060600EE0A068FCF732F93D
:1040A000216CA0680844A0606168884204D320683D
:1040B000A06001E005B16D1E6D1CA5633046BDE832
:1040C000F08110B50446006B00F01AFA2046BDE8F6
:1040D000104000F015BA00000F4841F2707142071D
:1040E00005D0C01D0C4A20F00700821A891A0B4A1D
:1040F00000230144C2E900030839103A21F0070106
:1041000011604B600B600B1AC0E9001393604FF015
:1041100000405360D0607047B40200203801002096
:10412000074C4FF08056074DFFF75AFF20680128D3
:10413000FAD92E60BFF34F8FBFF36F8FF4E7000003
:10414000241A002004ED00E02DE9F0479A46DDE94D
:10415000098481466FF00303206B03EB8202104455
:10416000089D20F00706700707D0502080F31188C3
:10417000BFF34F8FBFF36F8FFEE723180A5C83F8FE
:1041800034200A5C12B1401C1028F6D3002784F8B2
:104190004370072D00D30625E562C4E91157201DA1
:1041A00000F053F904F1180000F04FF92461C5F153
:1041B00007006462A061E76484F850705246494683
:1041C000304600F00FF92060B8F1000F01D0C8F8B8
:1041D0000040BDE8F087000030B5114900E011460D
:1041E0000A688242FBD34B685C18844203D1406862
:1041F00018444860084643681C18944209D1084C8A
:10420000103C2468A24209D052681A4442600A68ED
:1042100012680260814200D0086030BD0460F9E796
:104220003801002010B5044600F036F9A06B28B123
:104230005FF0000400F050F9204610BD0124F9E7BA
:104240000648416B096829B1416BC968C96849686A
:10425000816270474FF0FF31FAE700004C01002007
:1042600008484068401C4FF0500080F3118804D08B
:10427000BFF34F8FBFF36F8FFEE7BFF34F8FBFF3D7
:104280006F8FFEE7400100202DE9F041044600F069
:1042900003F994F9455004F1240609E0606A48B135
:1042A000304600F0E7FD08B100F08EF96D1E6DB2EA
:1042B000002DF3DC4FF0FF3684F8456000F00CF978
:1042C00000F0EAF894F9445004F1100709E020697D
:1042D00048B1384600F0CEFD08B100F075F96D1E0A
:1042E0006DB2002DF3DC84F84460BDE8F04100F0CD
:1042F000F3B800002DE9F0410546002700F00AFA66
:10430000314E306808B9FFF7E7FEF06805424BD13F
:10431000C5B3083568070ED005F00700C0F10800E6
:104320000544680707D0502080F31188BFF34F8FF2
:10433000BFF36F8FFEE72DB37068854234D82248F3
:10434000103001460C6801E020460C466168A94225
:1043500002D221680029F7D131688C4224D0076845
:104360002168016060680837411B10290FD9601966
:10437000420708D0502080F31188BFF34F8FBFF35E
:104380006F8FFEE710E041606560FFF725FF616811
:104390007068401A7060B268904200D2B060F068F5
:1043A00001430020C4E9000100F09EFD780707D01A
:1043B000502080F31188BFF34F8FBFF36F8FFEE75C
:1043C0003846BDE8F0810000280100200449086853
:1043D00018B10868826C521C82640868704700003B
:1043E0004C01002010B5031F4FF080741C601B1F90
:1043F00021F001011960191F044B0B6014390A6088
:10440000091F6FF0020244380A6010BD61420008C3
:10441000D0E9013201699A60D0E901235A604A6803
:10442000824201D182684A60002202610868401E0F
:104430000860704700F108014FF0FF32C0E9011237
:10444000C160016100210160704700210161704776
:1044500030B50B685A1C02D000F1080202E0026974
:1044600004E02246546825689D42FAD953684B609F
:1044700099608A60516008610168491C016030BD23
:1044800042684A6093688B609368596091600861E4
:104490000168491C01607047502080F31188BFF308
:1044A0004F8FBFF36F8F0A494868401C486001284E
:1044B0000CD10848006810F0FF0F07D0502080F39F
:1044C0001188BFF34F8FBFF36F8FFEE77047000077
:1044D0004001002004ED00E00849486828B1401E72
:1044E000486001D180F311887047502080F3118813
:1044F000BFF34F8FBFF36F8FFEE700004001002036
:1045000070B5002827D0144DA0F108046168E86850
:10451000014207D1502080F31188BFF34F8FBFF3C2
:104520006F8FFEE722683AB1502080F31188BFF305
:104530004F8FBFF36F8FFEE78143616000F0EAF8B1
:1045400060686968084468602046FFF745FEBDE87A
:10455000704000F0C9BC70BD2801002006484FF42F
:104560007A710068B0FBF1F14FF0E020491E416123
:1045700007210161704700002401002010B50200EE
:1045800014D00F48006B38B1502080F31188BFF36E
:104590004F8FBFF36F8FFEE700F0BCF8002110468D
:1045A000FFF77EFC00F0A0FC002807D105494FF082
:1045B00080500860BFF34F8FBFF36F8F10BD0000B6
:1045C0004C01002004ED00E001490120C861704762
:1045D0004C01002010B50C4650B10949096818314A
:1045E000FFF736FF2046BDE810400121FFF758BC19
:1045F000502080F31188BFF34F8FBFF36F8FFEE71A
:104600004C01002070B5040039D01D4DE06A2968C6
:10461000C96A884233D2A069002804DB2868C06ACE
:10462000C0F10700A061E16A164E01EB81016069EB
:1046300006EB810188421FD1201DFFF7E9FE012111
:1046400050B9E06A00EB800256F8222022B92A69AC
:1046500001FA00F082432A612868C06AE0622A6990
:1046600081401143296100EB800006EB8000211D91
:10467000BDE87040FFF704BF2868C06AE06270BD03
:104680004C010020241A002028B107490A6A026060
:10469000C96841607047502080F31188BFF34F8F85
:1046A000BFF36F8FFEE700004C0100201CB51548DA
:1046B0000024CDE900402346802213A1144800F0D5
:1046C000EDFA012809D0401C1AD1502080F311883E
:1046D000BFF34F8FBFF36F8FFEE7502080F3118839
:1046E000BFF34F8FBFF36F8F06484FF0FF312C3869
:1046F000816201214161C460BDE81C4000F040B806
:104700001CBD00007801002049444C450000000019
:10471000214100080248016B491C016370470000F9
:104720004C0100201448016B11B10121C161704797
:104730000021C1610169B1FA81F1C1F11F0101EBF1
:1047400081020E4951F822306BB101EB820101F177
:1047500008034A6852684A609A4201D152684A6026
:10476000D16801607047502080F31188BFF34F8FEC
:10477000BFF36F8FFEE700004C010020241A0020D9
:104780001CB532480168324A914207D1502080F36B
:104790001188BFF34F8FBFF36F8FFEE700682C497E
:1047A000491E884207D1502080F31188BFF34F8FF4
:1047B000BFF36F8FFEE7274908780190FF2008704C
:1047C00008788DF800009DF800009DF8002000F0AA
:1047D000F000904207D0502080F31188BFF34F8F34
:1047E000BFF36F8FFEE79DF800001B4A00F05000FA
:1047F00010700720906005E09DF800305B008DF898
:104800000030401E9DF800301B06F5D4000200F475
:10481000E0609060019808700C482030016841F415
:1048200070010160016841F070410160FFF796FE80
:1048300000205060FBF7D2FC0848016841F040417D
:104840000160FBF7BBFC00201CBD000000ED00E098
:1048500071C20F4100E400E04001002034EF00E0AD
:1048600010B5502080F31188BFF34F8FBFF36F8FC7
:1048700000F050FA18B104494FF080500860002051
:1048800080F3118810BD000004ED00E070B50E4605
:10489000050013D0D6B105FB06F04830FFF72AFD1E
:1048A000040009D004F1480120468EB10160C0E93E
:1048B0000F56012100F0C8F8204670BD502080F34B
:1048C0001188BFF34F8FBFF36F8FFEE70020E4E73F
:1048D0000060ECE72DE9FF4F002683B09B468A4637
:1048E000040003D0BAF1000F08D011E0502080F38B
:1048F0001188BFF34F8FBFF36F8FFEE7206C38B185
:10490000502080F31188BFF34F8FBFF36F8FFEE706
:1049100000F0F2F9DFF824814FF000094FF08057E2
:1049200048B9059838B1502080F31188BFF34F8FF4
:10493000BFF36F8FFEE7FFF7AFFDA56B45B35146A1
:104940002046E668FFF774FBBBF1000F13D0E6606A
:10495000606A50B104F1240000F08CFA28B1C8F864
:104960000070BFF34F8FBFF36F8FFFF7B5FD0120CE
:1049700007B000F065B86D1EA563206810B9FFF799
:1049800025FD606020690028EFD004F11000E3E706
:10499000059808B11EB106E0FFF79EFD27E06846C6
:1049A000FFF772FE0126FFF797FDFFF7B3FEFFF753
:1049B00073FD94F94400401C01D184F8449094F9AB
:1049C0004500401C01D184F84590FFF785FD05A9FD
:1049D000684600F02DF9002820460AD0FFF754FC65
:1049E00000F082FA2046FFF71DFC0028A3D000202B
:1049F000BEE7FFF717FCD8B1206830B9FFF74CFDD0
:104A00006068FFF7FFFDFFF767FD04F124000599DB
:104A1000FFF7E0FD2046FFF737FC00F065FA0028BD
:104A200089D1C8F80070BFF34F8FBFF36F8F82E753
:104A30002046FFF729FC00F057FA7CE704ED00E080
:104A400030BCBDE8C08F000070B50D46040025D015
:104A5000FFF722FDD4E90F20216802FB00116160FD
:104A60000021A1632168A1600A46D4E90F01401E1C
:104A700000FB0121E16021464FF0FF3001F8440FB7
:104A8000487004F110008DB1FFF7D4FC04F124004C
:104A9000FFF7D0FCFFF720FD012070BD502080F310
:104AA0001188BFF34F8FBFF36F8FFEE72169002995
:104AB000F0D000F0DFF90028ECD004494FF080502E
:104AC0000860BFF34F8FBFF36F8FE3E704ED00E0A3
:104AD0002DE9FF4782B01D468A464FF000080400CA
:104AE00003D0BAF1000F08D011E0502080F31188F4
:104AF000BFF34F8FBFF36F8FFEE7206C38B15020AC
:104B000080F31188BFF34F8FBFF36F8FFEE7022D45
:104B10000AD1E06B012807D0502080F31188BFF341
:104B20004F8FBFF36F8FFEE700F0E6F83F4F4FF077
:104B300000094FF0805648B9049838B1502080F3EE
:104B40001188BFF34F8FBFF36F8FFEE7FFF7A4FC11
:104B5000A06BE16B884207D3022D05D00498D0B139
:104B6000B8F1000F1AD01EE02A4651462046FFF742
:104B700072FA616A19B104F1240000F07BF920B1E6
:104B80003E60BFF34F8FBFF36F8FFFF7A5FC01208F
:104B900006B0BDE8F087FFF79FFC22E06846FFF70C
:104BA00073FD4FF00108FFF797FCFFF7B3FDFFF728
:104BB00073FC94F94400401C01D184F8449094F9AA
:104BC0004500401C01D184F84590FFF785FC04A9FD
:104BD000684600F02DF830B12046FFF755FB00F095
:104BE00083F90020D4E7FFF757FCA06BE16B884204
:104BF00013D1FFF771FC04F110000499FFF7EAFCF0
:104C00002046FFF741FB00F06FF900289ED13E607F
:104C1000BFF34F8FBFF36F8F98E7FFF75DFC204620
:104C2000FFF732FB00F060F990E7000004ED00E0D0
:104C300070B50D46040019D005B3FFF72DFC164AD8
:104C4000D1682868431C0FD02368126A934202D0AF
:104C500062688A421AD96268891A814216D2401A59
:104C600028602046FFF710FD002410E0502080F35C
:104C70001188BFF34F8FBFF36F8FFEE7502080F393
:104C80001188BFF34F8FBFF36F8FFEE70124FFF74B
:104C900023FC204670BD00004C0100202DE9FF5F81
:104CA0008346DDE90E87994616468A469000FFF74F
:104CB00021FB05001AD05420FFF71CFB040012D082
:104CC00025630021CDE90241CDE900874B463246FC
:104CD00051465846FFF738FA2046FFF719F90120E8
:104CE00004B000F006B82846FFF70AFC4FF0FF308A
:104CF000F6E730BCBDE8C09F0548416919B1006BBB
:104D000018B1002070470120704702207047000052
:104D10004C0100202DE9F0412E4C0027206B40B1C2
:104D2000A069401CA061E06900B101273846BDE8D8
:104D3000F081E668761CE66013D1606B006838B1DC
:104D4000502080F31188BFF34F8FBFF36F8FFEE7C2
:104D5000606BA16B6163A063206A401C2062FFF757
:104D60006FFAA06ADFF87080864209D3606B006832
:104D700080B1606BC068C568686886420DD2A06269
:104D80002068C06A00EB800158F821000128CAD9C8
:104D90000127C8E74FF0FF30F1E7281DFFF738FB88
:104DA000A86A18B105F11800FFF732FBE86A012183
:104DB000226981401143216100EB800108EB8100F1
:104DC000291DFFF75DFBE86A2168C96A8842CDD3D7
:104DD0000127CBE74C010020241A002070B5040005
:104DE0004FF0000140D0214D2868844207D0502068
:104DF00080F31188BFF34F8FBFF36F8FFEE7A06C76
:104E000038B1401EA064636CE26A9A422CD040B173
:104E10002AE0502080F31188BFF34F8FBFF36F8FCC
:104E2000FEE7201DFFF7F4FA114A012150B9E06AAC
:104E300000EB800352F8233023B92B6901FA00F00C
:104E400083432B61606CE062C0F10700A061E06AFF
:104E50002B6981401943296100EB800002EB80003F
:104E6000211DFFF70DFB0121084670BD4C010020FC
:104E7000241A00202DE9F041C068C468ACB104F1E7
:104E800018000746FFF7C4FA154D286B0126A0B19C
:104E900039461448FFF7F4FAE06A2968C96A88427B
:104EA0001CD90120EE61BDE8F081502080F311880B
:104EB000BFF34F8FBFF36F8FFEE7201DFFF7A8FAF8
:104EC000E16A2A6906FA01F01043286101EB8100CA
:104ED0000449B43901EB8000211DDBE70020E2E743
:104EE0004C010020D81A00202DE9F0472C4D002459
:104EF0002746286B38B1FFF7CFFA286B401E28638E
:104F0000286B40B146E0502080F31188BFF34F8FEB
:104F1000BFF36F8FFEE7A968224E0120D1B3A6F13F
:104F2000B40980463068E8B1F068C46804F118003C
:104F3000FFF76EFA201DFFF76BFAE06A2A6908FA9C
:104F400000F11143296100EB800109EB8100211D73
:104F5000FFF796FAE06A2968C96A8842E2D3C5F881
:104F60001C80DFE70CB1FFF76BF9AC6944B1464632
:104F7000FFF7D0FE00B1EE61641EF9D10020A861F8
:104F8000E86938B10849012738070860BFF34F8F37
:104F9000BFF36F8FFFF7A0FA3846BDE8F087000037
:104FA0004C010020D81A002004ED00E0F050000869
:104FB0004D2D0008000000000000000080000000EF
:104FC00094500008D92800080000000000000000EC
:104FD00080000000E4500008212B000800000000C1
:104FE0000000000080000000AC500008ED2B00081D
:104FF000000000000000000080000000BC5000081D
:105000009D2C00080000000000000000800000004F
:10501000FC5000086D2A000800000000000000009D
:1050200080000000D8500008A529000800000000FA
:105030000000000080000000CC500008550A000865
:1050400000000000000000008000000000000000E0
:10505000000000000102030406070809A086010001
:10506000400D0300801A060000350C0040420F007E
:1050700080841E0000093D0000127A000024F40024
:1050800000366E010048E801006CDC020000000000
:1050900001020304616363656C65726F6D6574651D
:1050A000725461736B48616E646C650070726573F5
:1050B000737572655461736B0000000074656D70E8
:1050C000657261747572655461736B006275747496
:1050D0006F6E5461736B00006779726F5461736B0C
:1050E000000000006D61676E65746F5461736B0042
:1050F000756172745461736B0000000068756D69AE
:10510000646974795461736B000000002C510008CD
:10511000000000208C0100004208000890510008A7
:105120008C0100208C1D000024340008011813039A
:105130001E1B08E5041A25041AF9048113191F140B
:105140000887231B086D041AE904415AC70801188F
:105150001AFD201BE5243019041AFD041377251BC2
:10516000085D041AD104415AAF0801181AE520134A
:10517000B3261B0899044B0D272C1AEB0C011C5A63
:105180002128024406031D093D1AAA01014400001A
:040000050800018965
:00000001FF
